{
  "abi": [
    {
      "inputs": [
        {
          "internalType": "string",
          "name": "nP",
          "type": "string"
        },
        {
          "internalType": "address payable",
          "name": "_handlerAddr",
          "type": "address"
        }
      ],
      "stateMutability": "payable",
      "type": "constructor"
    },
    {
      "inputs": [
        {
          "internalType": "uint256",
          "name": "retrieve_index",
          "type": "uint256"
        }
      ],
      "name": "getInsurance",
      "outputs": [
        {
          "components": [
            {
              "internalType": "address payable",
              "name": "provider",
              "type": "address"
            },
            {
              "internalType": "enum Shared.Type",
              "name": "insurance_type",
              "type": "uint8"
            },
            {
              "internalType": "uint256",
              "name": "price",
              "type": "uint256"
            }
          ],
          "internalType": "struct Shared.InsuranceItem",
          "name": "",
          "type": "tuple"
        }
      ],
      "stateMutability": "view",
      "type": "function"
    },
    {
      "inputs": [
        {
          "components": [
            {
              "internalType": "address payable",
              "name": "clientWallet",
              "type": "address"
            },
            {
              "internalType": "enum Shared.Type",
              "name": "t",
              "type": "uint8"
            },
            {
              "internalType": "uint256",
              "name": "maxp",
              "type": "uint256"
            },
            {
              "internalType": "uint256",
              "name": "scadenza",
              "type": "uint256"
            }
          ],
          "internalType": "struct Shared.Request",
          "name": "r",
          "type": "tuple"
        }
      ],
      "name": "getRequest",
      "outputs": [
        {
          "components": [
            {
              "internalType": "address payable",
              "name": "provider",
              "type": "address"
            },
            {
              "internalType": "enum Shared.Type",
              "name": "insurance_type",
              "type": "uint8"
            },
            {
              "internalType": "uint256",
              "name": "price",
              "type": "uint256"
            }
          ],
          "internalType": "struct Shared.InsuranceItem",
          "name": "",
          "type": "tuple"
        }
      ],
      "stateMutability": "view",
      "type": "function"
    },
    {
      "inputs": [],
      "name": "getTotInsurances",
      "outputs": [
        {
          "internalType": "uint256",
          "name": "",
          "type": "uint256"
        }
      ],
      "stateMutability": "view",
      "type": "function"
    },
    {
      "inputs": [],
      "name": "nowTime",
      "outputs": [
        {
          "internalType": "uint256",
          "name": "",
          "type": "uint256"
        }
      ],
      "stateMutability": "nonpayable",
      "type": "function"
    },
    {
      "inputs": [],
      "name": "retrieveTime",
      "outputs": [
        {
          "internalType": "uint256",
          "name": "",
          "type": "uint256"
        }
      ],
      "stateMutability": "view",
      "type": "function"
    },
    {
      "inputs": [
        {
          "internalType": "address payable",
          "name": "_to",
          "type": "address"
        },
        {
          "internalType": "uint256",
          "name": "_price",
          "type": "uint256"
        }
      ],
      "name": "sendDeposit",
      "outputs": [],
      "stateMutability": "payable",
      "type": "function"
    },
    {
      "inputs": [
        {
          "internalType": "enum Shared.Type",
          "name": "t",
          "type": "uint8"
        },
        {
          "internalType": "uint256",
          "name": "p",
          "type": "uint256"
        }
      ],
      "name": "setInsurance",
      "outputs": [],
      "stateMutability": "nonpayable",
      "type": "function"
    },
    {
      "stateMutability": "payable",
      "type": "receive"
    }
  ],
  "bytecode": {
    "object": "0x608060405260008055670de0b6b3a764000060015560006003556040516200098a3803806200098a8339810160408190526200003b91620000a4565b600262000049838262000224565b50600480546001600160a01b0319166001600160a01b039290921691909117905550620002f0565b634e487b7160e01b600052604160045260246000fd5b80516001600160a01b03811681146200009f57600080fd5b919050565b60008060408385031215620000b857600080fd5b82516001600160401b0380821115620000d057600080fd5b818501915085601f830112620000e557600080fd5b815181811115620000fa57620000fa62000071565b604051601f8201601f19908116603f0116810190838211818310171562000125576200012562000071565b816040528281526020935088848487010111156200014257600080fd5b600091505b8282101562000166578482018401518183018501529083019062000147565b82821115620001785760008484830101525b95506200018a91505085820162000087565b925050509250929050565b600181811c90821680620001aa57607f821691505b602082108103620001cb57634e487b7160e01b600052602260045260246000fd5b50919050565b601f8211156200021f57600081815260208120601f850160051c81016020861015620001fa5750805b601f850160051c820191505b818110156200021b5782815560010162000206565b5050505b505050565b81516001600160401b0381111562000240576200024062000071565b620002588162000251845462000195565b84620001d1565b602080601f831160018114620002905760008415620002775750858301515b600019600386901b1c1916600185901b1785556200021b565b600085815260208120601f198616915b82811015620002c157888601518255948401946001909101908401620002a0565b5085821015620002e05787850151600019600388901b60f8161c191681555b5050505050600190811b01905550565b61068a80620003006000396000f3fe6080604052600436106100745760003560e01c806385fae6021161004e57806385fae602146100de578063bb25d76a1461010b578063e35fd0c71461012b578063f5ac85921461013e57600080fd5b806317ee895f14610080578063335f1b37146100a25780636a0eb96c146100c957600080fd5b3661007b57005b600080fd5b34801561008c57600080fd5b506100a061009b366004610496565b610153565b005b3480156100ae57600080fd5b504260008190555b6040519081526020015b60405180910390f35b3480156100d557600080fd5b506000546100b6565b3480156100ea57600080fd5b506100fe6100f93660046104c0565b61021d565b6040516100c091906104ef565b34801561011757600080fd5b506100fe610126366004610552565b6102a9565b6100a06101393660046105d2565b6103dc565b34801561014a57600080fd5b506003546100b6565b60006040518060600160405280306001600160a01b03168152602001846002811115610181576101816104d9565b8152602001600154846101949190610604565b90526003546000908152600560209081526040909120825181546001600160a01b039091166001600160a01b0319821681178355928401519394508493919283916001600160a81b03191617600160a01b8360028111156101f7576101f76104d9565b02179055506040919091015160019182015560035461021591610623565b600355505050565b604080516060810182526000808252602082018190529181019190915260008281526005602090815260409182902082516060810190935280546001600160a01b03811684529091830190600160a01b900460ff166002811115610283576102836104d9565b6002811115610294576102946104d9565b81526020016001820154815250509050919050565b6040805160608082018352600080835260208084018290528385018290528451928301855281835282018190528184018181529385015190935290915b6003548110156103d55783602001516002811115610306576103066104d9565b600082815260056020526040902054600160a01b900460ff166002811115610330576103306104d9565b148015610353575060408083015160008381526005602052919091206001015411155b156103c35760008181526005602090815260409182902082516060810190935280546001600160a01b03811684529091830190600160a01b900460ff1660028111156103a1576103a16104d9565b60028111156103b2576103b26104d9565b815260200160018201548152505091505b806103cd8161063b565b9150506102e6565b5092915050565b600080836001600160a01b03168360405160006040518083038185875af1925050503d806000811461042a576040519150601f19603f3d011682016040523d82523d6000602084013e61042f565b606091505b50915091508161047c5760405162461bcd60e51b81526020600482015260146024820152732330b4b632b2103a379039b2b7321022ba3432b960611b604482015260640160405180910390fd5b50505050565b80356003811061049157600080fd5b919050565b600080604083850312156104a957600080fd5b6104b283610482565b946020939093013593505050565b6000602082840312156104d257600080fd5b5035919050565b634e487b7160e01b600052602160045260246000fd5b81516001600160a01b03168152602082015160608201906003811061052457634e487b7160e01b600052602160045260246000fd5b806020840152506040830151604083015292915050565b80356001600160a01b038116811461049157600080fd5b60006080828403121561056457600080fd5b6040516080810181811067ffffffffffffffff8211171561059557634e487b7160e01b600052604160045260246000fd5b6040526105a18361053b565b81526105af60208401610482565b602082015260408301356040820152606083013560608201528091505092915050565b600080604083850312156105e557600080fd5b6104b28361053b565b634e487b7160e01b600052601160045260246000fd5b600081600019048311821515161561061e5761061e6105ee565b500290565b60008219821115610636576106366105ee565b500190565b60006001820161064d5761064d6105ee565b506001019056fea2646970667358221220c7a3038928289839ce792f1a7a1c91a551ee4e45e9ed9401f593e7c572bf13b064736f6c634300080f0033",
    "linkReferences": {}
  },
  "methodIdentifiers": {
    "getInsurance(uint256)": "85fae602",
    "getRequest((address,uint8,uint256,uint256))": "bb25d76a",
    "getTotInsurances()": "f5ac8592",
    "nowTime()": "335f1b37",
    "retrieveTime()": "6a0eb96c",
    "sendDeposit(address,uint256)": "e35fd0c7",
    "setInsurance(uint8,uint256)": "17ee895f"
  },
  "id": 15
}