{
  "abi": [
    {
      "inputs": [
        {
          "internalType": "string",
          "name": "nP",
          "type": "string"
        },
        {
          "internalType": "address payable",
          "name": "_handlerAddr",
          "type": "address"
        }
      ],
      "stateMutability": "payable",
      "type": "constructor"
    },
    {
      "inputs": [],
      "name": "nowTime",
      "outputs": [
        {
          "internalType": "uint256",
          "name": "",
          "type": "uint256"
        }
      ],
      "stateMutability": "nonpayable",
      "type": "function"
    },
    {
      "inputs": [
        {
          "internalType": "uint256",
          "name": "id_R",
          "type": "uint256"
        }
      ],
      "name": "putProposal",
      "outputs": [],
      "stateMutability": "nonpayable",
      "type": "function"
    },
    {
      "inputs": [
        {
          "internalType": "address payable",
          "name": "_to",
          "type": "address"
        },
        {
          "internalType": "uint256",
          "name": "_price",
          "type": "uint256"
        }
      ],
      "name": "sendDeposit",
      "outputs": [],
      "stateMutability": "payable",
      "type": "function"
    },
    {
      "inputs": [
        {
          "internalType": "enum Shared.Type",
          "name": "t",
          "type": "uint8"
        },
        {
          "internalType": "uint256",
          "name": "p",
          "type": "uint256"
        }
      ],
      "name": "setInsurance",
      "outputs": [],
      "stateMutability": "nonpayable",
      "type": "function"
    },
    {
      "inputs": [
        {
          "internalType": "uint256",
          "name": "id_R",
          "type": "uint256"
        },
        {
          "internalType": "enum Shared.Type",
          "name": "t",
          "type": "uint8"
        },
        {
          "internalType": "uint256",
          "name": "p",
          "type": "uint256"
        }
      ],
      "name": "setInsuranceForRequest",
      "outputs": [],
      "stateMutability": "nonpayable",
      "type": "function"
    },
    {
      "stateMutability": "payable",
      "type": "receive"
    }
  ],
  "bytecode": {
    "object": "0x608060405260008055670de0b6b3a7640000600155600060035560405162000af738038062000af78339810160408190526200003b91620000a4565b600262000049838262000224565b50600480546001600160a01b0319166001600160a01b039290921691909117905550620002f0565b634e487b7160e01b600052604160045260246000fd5b80516001600160a01b03811681146200009f57600080fd5b919050565b60008060408385031215620000b857600080fd5b82516001600160401b0380821115620000d057600080fd5b818501915085601f830112620000e557600080fd5b815181811115620000fa57620000fa62000071565b604051601f8201601f19908116603f0116810190838211818310171562000125576200012562000071565b816040528281526020935088848487010111156200014257600080fd5b600091505b8282101562000166578482018401518183018501529083019062000147565b82821115620001785760008484830101525b95506200018a91505085820162000087565b925050509250929050565b600181811c90821680620001aa57607f821691505b602082108103620001cb57634e487b7160e01b600052602260045260246000fd5b50919050565b601f8211156200021f57600081815260208120601f850160051c81016020861015620001fa5750805b601f850160051c820191505b818110156200021b5782815560010162000206565b5050505b505050565b81516001600160401b0381111562000240576200024062000071565b620002588162000251845462000195565b84620001d1565b602080601f831160018114620002905760008415620002775750858301515b600019600386901b1c1916600185901b1785556200021b565b600085815260208120601f198616915b82811015620002c157888601518255948401946001909101908401620002a0565b5085821015620002e05787850151600019600388901b60f8161c191681555b5050505050600190811b01905550565b6107f780620003006000396000f3fe60806040526004361061004e5760003560e01c806317ee895f1461005a578063335f1b371461007c5780635fb2b517146100a157806363672d40146100c1578063e35fd0c7146100e157600080fd5b3661005557005b600080fd5b34801561006657600080fd5b5061007a6100753660046105dc565b6100f4565b005b34801561008857600080fd5b5042600081905560405190815260200160405180910390f35b3480156100ad57600080fd5b5061007a6100bc366004610608565b6101aa565b3480156100cd57600080fd5b5061007a6100dc366004610621565b61048a565b61007a6100ef36600461066e565b61052a565b6003546101029060016106a2565b60035560408051606081019091523381526000906020810184600281111561012c5761012c6106ba565b8152602090810184905260035460009081526005825260409020825181546001600160a01b039091166001600160a01b0319821681178355928401519394508493919283916001600160a81b03191617600160a01b836002811115610193576101936106ba565b021790555060408201518160010155905050505050565b60408051606081018252600080825260208201819052918101919091526004805460405163c58343ef60e01b81529182018490526000916001600160a01b039091169063c58343ef90602401608060405180830381865afa158015610213573d6000803e3d6000fd5b505050506040513d601f19601f8201168201806040525081019061023791906106d0565b9050600160035410156102a75760405162461bcd60e51b815260206004820152602d60248201527f6e6f6e20736f6e6f20616e636f726120737461746520696d706f73746174652060448201526c61737369637572617a696f6e6960981b60648201526084015b60405180910390fd5b60016000526005602090815260408051606081019091527f1471eb6eb2c5e789fc3de43f8ce62938c7d1836ec861730447e2ada8fd81017b80546001600160a01b03811683529192909190830190600160a01b900460ff166002811115610310576103106106ba565b6002811115610321576103216106ba565b81526001918201546020909101529092505b60035481116104215781602001516002811115610352576103526106ba565b600082815260056020526040902054600160a01b900460ff16600281111561037c5761037c6106ba565b14801561039f575060408084015160008381526005602052919091206001015411155b1561040f5760008181526005602090815260409182902082516060810190935280546001600160a01b03811684529091830190600160a01b900460ff1660028111156103ed576103ed6106ba565b60028111156103fe576103fe6106ba565b815260200160018201548152505092505b8061041981610753565b915050610333565b5060048054604051631b6778d560e01b81526001600160a01b0390911691631b6778d59161045391879187910161076c565b600060405180830381600087803b15801561046d57600080fd5b505af1158015610481573d6000803e3d6000fd5b50505050505050565b60006040518060600160405280336001600160a01b031681526020018460028111156104b8576104b86106ba565b815260200183905260048054604051631b6778d560e01b81529293506001600160a01b031691631b6778d5916104f291889186910161076c565b600060405180830381600087803b15801561050c57600080fd5b505af1158015610520573d6000803e3d6000fd5b5050505050505050565b600080836001600160a01b03168360405160006040518083038185875af1925050503d8060008114610578576040519150601f19603f3d011682016040523d82523d6000602084013e61057d565b606091505b5091509150816105c65760405162461bcd60e51b81526020600482015260146024820152732330b4b632b2103a379039b2b7321022ba3432b960611b604482015260640161029e565b50505050565b600381106105d957600080fd5b50565b600080604083850312156105ef57600080fd5b82356105fa816105cc565b946020939093013593505050565b60006020828403121561061a57600080fd5b5035919050565b60008060006060848603121561063657600080fd5b833592506020840135610648816105cc565b929592945050506040919091013590565b6001600160a01b03811681146105d957600080fd5b6000806040838503121561068157600080fd5b82356105fa81610659565b634e487b7160e01b600052601160045260246000fd5b600082198211156106b5576106b561068c565b500190565b634e487b7160e01b600052602160045260246000fd5b6000608082840312156106e257600080fd5b6040516080810181811067ffffffffffffffff8211171561071357634e487b7160e01b600052604160045260246000fd5b604052825161072181610659565b81526020830151610731816105cc565b6020820152604083810151908201526060928301519281019290925250919050565b6000600182016107655761076561068c565b5060010190565b82815281516001600160a01b03166020808301919091528201516080820190600381106107a957634e487b7160e01b600052602160045260246000fd5b8060408401525060408301516060830152939250505056fea26469706673582212206a97aa9baf910755749f84edb67354c2a989e885732d128f53f5edc93fdee5fa64736f6c634300080f0033",
    "linkReferences": {}
  },
  "methodIdentifiers": {
    "nowTime()": "335f1b37",
    "putProposal(uint256)": "5fb2b517",
    "sendDeposit(address,uint256)": "e35fd0c7",
    "setInsurance(uint8,uint256)": "17ee895f",
    "setInsuranceForRequest(uint256,uint8,uint256)": "63672d40"
  },
  "id": 15
}