{
  "abi": [
    {
      "inputs": [
        {
          "internalType": "string",
          "name": "nP",
          "type": "string"
        },
        {
          "internalType": "address payable",
          "name": "_handlerAddr",
          "type": "address"
        }
      ],
      "stateMutability": "payable",
      "type": "constructor"
    },
    {
      "inputs": [],
      "name": "nowTime",
      "outputs": [
        {
          "internalType": "uint256",
          "name": "",
          "type": "uint256"
        }
      ],
      "stateMutability": "nonpayable",
      "type": "function"
    },
    {
      "inputs": [
        {
          "internalType": "uint256",
          "name": "id_R",
          "type": "uint256"
        }
      ],
      "name": "putProposal",
      "outputs": [],
      "stateMutability": "nonpayable",
      "type": "function"
    },
    {
      "inputs": [
        {
          "internalType": "address payable",
          "name": "_to",
          "type": "address"
        },
        {
          "internalType": "uint256",
          "name": "_price",
          "type": "uint256"
        }
      ],
      "name": "sendDeposit",
      "outputs": [],
      "stateMutability": "payable",
      "type": "function"
    },
    {
      "inputs": [
        {
          "internalType": "enum Shared.Type",
          "name": "t",
          "type": "uint8"
        },
        {
          "internalType": "uint256",
          "name": "p",
          "type": "uint256"
        }
      ],
      "name": "setInsurance",
      "outputs": [],
      "stateMutability": "nonpayable",
      "type": "function"
    },
    {
      "inputs": [
        {
          "internalType": "uint256",
          "name": "id_R",
          "type": "uint256"
        },
        {
          "internalType": "enum Shared.Type",
          "name": "t",
          "type": "uint8"
        },
        {
          "internalType": "uint256",
          "name": "p",
          "type": "uint256"
        }
      ],
      "name": "setInsuranceForRequest",
      "outputs": [],
      "stateMutability": "nonpayable",
      "type": "function"
    },
    {
      "stateMutability": "payable",
      "type": "receive"
    }
  ],
  "bytecode": {
    "object": "0x608060405260008055670de0b6b3a7640000600155600060035560405162000c5c38038062000c5c8339810160408190526200003b91620000a4565b600262000049838262000224565b50600480546001600160a01b0319166001600160a01b039290921691909117905550620002f0565b634e487b7160e01b600052604160045260246000fd5b80516001600160a01b03811681146200009f57600080fd5b919050565b60008060408385031215620000b857600080fd5b82516001600160401b0380821115620000d057600080fd5b818501915085601f830112620000e557600080fd5b815181811115620000fa57620000fa62000071565b604051601f8201601f19908116603f0116810190838211818310171562000125576200012562000071565b816040528281526020935088848487010111156200014257600080fd5b600091505b8282101562000166578482018401518183018501529083019062000147565b82821115620001785760008484830101525b95506200018a91505085820162000087565b925050509250929050565b600181811c90821680620001aa57607f821691505b602082108103620001cb57634e487b7160e01b600052602260045260246000fd5b50919050565b601f8211156200021f57600081815260208120601f850160051c81016020861015620001fa5750805b601f850160051c820191505b818110156200021b5782815560010162000206565b5050505b505050565b81516001600160401b0381111562000240576200024062000071565b620002588162000251845462000195565b84620001d1565b602080601f831160018114620002905760008415620002775750858301515b600019600386901b1c1916600185901b1785556200021b565b600085815260208120601f198616915b82811015620002c157888601518255948401946001909101908401620002a0565b5085821015620002e05787850151600019600388901b60f8161c191681555b5050505050600190811b01905550565b61095c80620003006000396000f3fe60806040526004361061004e5760003560e01c806317ee895f1461005a578063335f1b371461007c5780635fb2b517146100a157806363672d40146100c1578063e35fd0c7146100e157600080fd5b3661005557005b600080fd5b34801561006657600080fd5b5061007a610075366004610741565b6100f4565b005b34801561008857600080fd5b5042600081905560405190815260200160405180910390f35b3480156100ad57600080fd5b5061007a6100bc36600461076d565b6101aa565b3480156100cd57600080fd5b5061007a6100dc366004610786565b6105ef565b61007a6100ef3660046107d3565b61068f565b600354610102906001610807565b60035560408051606081019091523381526000906020810184600281111561012c5761012c61081f565b8152602090810184905260035460009081526005825260409020825181546001600160a01b039091166001600160a01b0319821681178355928401519394508493919283916001600160a81b03191617600160a01b8360028111156101935761019361081f565b021790555060408201518160010155905050505050565b60408051606081018252600080825260208201819052918101919091526004805460405163c58343ef60e01b81529182018490526000916001600160a01b039091169063c58343ef90602401608060405180830381865afa158015610213573d6000803e3d6000fd5b505050506040513d601f19601f820116820180604052508101906102379190610835565b9050600160035410156102a75760405162461bcd60e51b815260206004820152602d60248201527f6e6f6e20736f6e6f20616e636f726120737461746520696d706f73746174652060448201526c61737369637572617a696f6e6960981b60648201526084015b60405180910390fd5b60016000526005602090815260408051606081019091527f1471eb6eb2c5e789fc3de43f8ce62938c7d1836ec861730447e2ada8fd81017b80546001600160a01b03811683529192909190830190600160a01b900460ff1660028111156103105761031061081f565b60028111156103215761032161081f565b81526001918201546020909101529092505b600354811161044357816020015160028111156103525761035261081f565b600082815260056020526040902054600160a01b900460ff16600281111561037c5761037c61081f565b14801561039f575060408084015160008381526005602052919091206001015411155b80156103c1575060408083015160008381526005602052919091206001015411155b156104315760008181526005602090815260409182902082516060810190935280546001600160a01b03811684529091830190600160a01b900460ff16600281111561040f5761040f61081f565b60028111156104205761042061081f565b815260200160018201548152505092505b8061043b816108b8565b915050610333565b50600160005260056020527f1471eb6eb2c5e789fc3de43f8ce62938c7d1836ec861730447e2ada8fd81017c5460408301511480156104dc5750600160005260056020527f1471eb6eb2c5e789fc3de43f8ce62938c7d1836ec861730447e2ada8fd81017b54600160a01b900460ff1660028111156104c4576104c461081f565b826020015160028111156104da576104da61081f565b145b1561058757806040015182604001511080156105215750806020015160028111156105095761050961081f565b8260200151600281111561051f5761051f61081f565b145b6105875760405162461bcd60e51b815260206004820152603160248201527f6e657373756e612061737369637572617a696f6e6520696e73657269746120726044820152706973706574746120692076696e636f6c6960781b606482015260840161029e565b60048054604051631b6778d560e01b81526001600160a01b0390911691631b6778d5916105b89187918791016108d1565b600060405180830381600087803b1580156105d257600080fd5b505af11580156105e6573d6000803e3d6000fd5b50505050505050565b60006040518060600160405280336001600160a01b0316815260200184600281111561061d5761061d61081f565b815260200183905260048054604051631b6778d560e01b81529293506001600160a01b031691631b6778d5916106579188918691016108d1565b600060405180830381600087803b15801561067157600080fd5b505af1158015610685573d6000803e3d6000fd5b5050505050505050565b600080836001600160a01b03168360405160006040518083038185875af1925050503d80600081146106dd576040519150601f19603f3d011682016040523d82523d6000602084013e6106e2565b606091505b50915091508161072b5760405162461bcd60e51b81526020600482015260146024820152732330b4b632b2103a379039b2b7321022ba3432b960611b604482015260640161029e565b50505050565b6003811061073e57600080fd5b50565b6000806040838503121561075457600080fd5b823561075f81610731565b946020939093013593505050565b60006020828403121561077f57600080fd5b5035919050565b60008060006060848603121561079b57600080fd5b8335925060208401356107ad81610731565b929592945050506040919091013590565b6001600160a01b038116811461073e57600080fd5b600080604083850312156107e657600080fd5b823561075f816107be565b634e487b7160e01b600052601160045260246000fd5b6000821982111561081a5761081a6107f1565b500190565b634e487b7160e01b600052602160045260246000fd5b60006080828403121561084757600080fd5b6040516080810181811067ffffffffffffffff8211171561087857634e487b7160e01b600052604160045260246000fd5b6040528251610886816107be565b8152602083015161089681610731565b6020820152604083810151908201526060928301519281019290925250919050565b6000600182016108ca576108ca6107f1565b5060010190565b82815281516001600160a01b031660208083019190915282015160808201906003811061090e57634e487b7160e01b600052602160045260246000fd5b8060408401525060408301516060830152939250505056fea26469706673582212205af209ee36987af2236cd519140d1b8dfda766536387c05c66cbb264f4992bb764736f6c634300080f0033",
    "linkReferences": {}
  },
  "methodIdentifiers": {
    "nowTime()": "335f1b37",
    "putProposal(uint256)": "5fb2b517",
    "sendDeposit(address,uint256)": "e35fd0c7",
    "setInsurance(uint8,uint256)": "17ee895f",
    "setInsuranceForRequest(uint256,uint8,uint256)": "63672d40"
  },
  "id": 15
}