{
  "abi": [
    {
      "inputs": [
        {
          "internalType": "string",
          "name": "_name",
          "type": "string"
        },
        {
          "internalType": "bool",
          "name": "_gender",
          "type": "bool"
        },
        {
          "internalType": "uint256",
          "name": "_birth",
          "type": "uint256"
        },
        {
          "internalType": "string",
          "name": "_discount",
          "type": "string"
        },
        {
          "internalType": "address payable",
          "name": "_handlerAddr",
          "type": "address"
        }
      ],
      "stateMutability": "payable",
      "type": "constructor"
    },
    {
      "stateMutability": "payable",
      "type": "fallback"
    },
    {
      "inputs": [
        {
          "internalType": "uint256",
          "name": "id_R",
          "type": "uint256"
        }
      ],
      "name": "addNewInsurance",
      "outputs": [],
      "stateMutability": "nonpayable",
      "type": "function"
    },
    {
      "inputs": [],
      "name": "nowTime",
      "outputs": [
        {
          "internalType": "uint256",
          "name": "",
          "type": "uint256"
        }
      ],
      "stateMutability": "nonpayable",
      "type": "function"
    },
    {
      "inputs": [
        {
          "internalType": "uint256",
          "name": "_maxpurchase",
          "type": "uint256"
        },
        {
          "internalType": "enum Shared.Type",
          "name": "_t",
          "type": "uint8"
        },
        {
          "internalType": "uint256",
          "name": "_hoursToWait",
          "type": "uint256"
        }
      ],
      "name": "requestInsurance",
      "outputs": [],
      "stateMutability": "payable",
      "type": "function"
    },
    {
      "inputs": [
        {
          "internalType": "address payable",
          "name": "_to",
          "type": "address"
        },
        {
          "internalType": "uint256",
          "name": "_price",
          "type": "uint256"
        }
      ],
      "name": "sendDeposit",
      "outputs": [],
      "stateMutability": "payable",
      "type": "function"
    },
    {
      "stateMutability": "payable",
      "type": "receive"
    }
  ],
  "bytecode": {
    "object": "0x608060405260008055670de0b6b3a76400006001556000600b5560405162000ac938038062000ac98339810160408190526200003b9162000240565b600262000049868262000379565b506003805460ff1916851515179055600483905560056200006b838262000379565b50600c80546001600160a01b0319166001600160a01b038316908117909155600480546040516386818cbf60e01b8152600093926386818cbf92620000b79260029260059101620004ca565b6020604051808303816000875af1158015620000d7573d6000803e3d6000fd5b505050506040513d601f19601f82011682018060405250810190620000fd9190620004f9565b905080620001515760405162461bcd60e51b815260206004820152601f60248201527f70726f626c656d73207769746820796f757220726567697374726174696f6e00604482015260640160405180910390fd5b5050505050506200051e565b634e487b7160e01b600052604160045260246000fd5b600082601f8301126200018557600080fd5b81516001600160401b0380821115620001a257620001a26200015d565b604051601f8301601f19908116603f01168101908282118183101715620001cd57620001cd6200015d565b81604052838152602092508683858801011115620001ea57600080fd5b600091505b838210156200020e5785820183015181830184015290820190620001ef565b83821115620002205760008385830101525b9695505050505050565b805180151581146200023b57600080fd5b919050565b600080600080600060a086880312156200025957600080fd5b85516001600160401b03808211156200027157600080fd5b6200027f89838a0162000173565b96506200028f602089016200022a565b9550604088015194506060880151915080821115620002ad57600080fd5b50620002bc8882890162000173565b608088015190935090506001600160a01b0381168114620002dc57600080fd5b809150509295509295909350565b600181811c90821680620002ff57607f821691505b6020821081036200032057634e487b7160e01b600052602260045260246000fd5b50919050565b601f8211156200037457600081815260208120601f850160051c810160208610156200034f5750805b601f850160051c820191505b8181101562000370578281556001016200035b565b5050505b505050565b81516001600160401b038111156200039557620003956200015d565b620003ad81620003a68454620002ea565b8462000326565b602080601f831160018114620003e55760008415620003cc5750858301515b600019600386901b1c1916600185901b17855562000370565b600085815260208120601f198616915b828110156200041657888601518255948401946001909101908401620003f5565b5085821015620004355787850151600019600388901b60f8161c191681555b5050505050600190811b01905550565b600081546200045481620002ea565b8085526020600183811680156200047457600181146200048f57620004bf565b60ff1985168884015283151560051b880183019550620004bf565b866000528260002060005b85811015620004b75781548a82018601529083019084016200049a565b890184019650505b505050505092915050565b606081526000620004df606083018662000445565b846020840152828103604084015262000220818562000445565b6000602082840312156200050c57600080fd5b62000517826200022a565b9392505050565b61059b806200052e6000396000f3fe6080604052600436106100435760003560e01c8063335f1b371461005157806333eb4df6146100765780636723e2691461008b578063e35fd0c7146100ab5761004a565b3661004a57005b6060516080f35b34801561005d57600080fd5b5042600081905560405190815260200160405180910390f35b6100896100843660046103a1565b6100be565b005b34801561009757600080fd5b506100896100a63660046103d9565b6101df565b6100896100b9366004610407565b6102ef565b42600055333183111561010b5760405162461bcd60e51b815260206004820152601060248201526f3737ba1032b737bab3b41032ba3432b960811b60448201526064015b60405180910390fd5b600c54610121906001600160a01b0316846102ef565b60006040518060800160405280336001600160a01b0316815260200184600281111561014f5761014f610433565b81526020810186905260400161016784610e1061045f565b600054610174919061047e565b9052600c5460405163166abbbd60e11b81529192506001600160a01b031690632cd5777a906101a7908490600401610496565b600060405180830381600087803b1580156101c157600080fd5b505af11580156101d5573d6000803e3d6000fd5b5050505050505050565b6040805160608101825260008082526020820181905291810191909152600c546040516318feeb1560e31b8152600481018490526001600160a01b039091169063c7f758a890602401606060405180830381865afa158015610245573d6000803e3d6000fd5b505050506040513d601f19601f8201168201806040525081019061026991906104ec565b600b546000908152600a60209081526040909120825181546001600160a01b039091166001600160a01b0319821681178355928401519394508493919283916001600160a81b03191617600160a01b8360028111156102ca576102ca610433565b021790555060409190910151600191820155600b546102e89161047e565b600b555050565b600080836001600160a01b03168360405160006040518083038185875af1925050503d806000811461033d576040519150601f19603f3d011682016040523d82523d6000602084013e610342565b606091505b50915091508161038b5760405162461bcd60e51b81526020600482015260146024820152732330b4b632b2103a379039b2b7321022ba3432b960611b6044820152606401610102565b50505050565b6003811061039e57600080fd5b50565b6000806000606084860312156103b657600080fd5b8335925060208401356103c881610391565b929592945050506040919091013590565b6000602082840312156103eb57600080fd5b5035919050565b6001600160a01b038116811461039e57600080fd5b6000806040838503121561041a57600080fd5b8235610425816103f2565b946020939093013593505050565b634e487b7160e01b600052602160045260246000fd5b634e487b7160e01b600052601160045260246000fd5b600081600019048311821515161561047957610479610449565b500290565b6000821982111561049157610491610449565b500190565b81516001600160a01b0316815260208201516080820190600381106104cb57634e487b7160e01b600052602160045260246000fd5b80602084015250604083015160408301526060830151606083015292915050565b6000606082840312156104fe57600080fd5b6040516060810181811067ffffffffffffffff8211171561052f57634e487b7160e01b600052604160045260246000fd5b604052825161053d816103f2565b8152602083015161054d81610391565b6020820152604092830151928101929092525091905056fea2646970667358221220e2f75f102ef8b7a08cd3edad6f5effd6a5edc5047f05ef324af46ab80b715e8e64736f6c634300080f0033",
    "linkReferences": {}
  },
  "methodIdentifiers": {
    "addNewInsurance(uint256)": "6723e269",
    "nowTime()": "335f1b37",
    "requestInsurance(uint256,uint8,uint256)": "33eb4df6",
    "sendDeposit(address,uint256)": "e35fd0c7"
  },
  "id": 14
}