{
  "abi": [
    {
      "inputs": [
        {
          "internalType": "string",
          "name": "_name",
          "type": "string"
        },
        {
          "internalType": "bool",
          "name": "_gender",
          "type": "bool"
        },
        {
          "internalType": "uint256",
          "name": "_birth",
          "type": "uint256"
        },
        {
          "internalType": "string",
          "name": "_discount",
          "type": "string"
        },
        {
          "internalType": "address payable",
          "name": "_handlerAddr",
          "type": "address"
        }
      ],
      "stateMutability": "payable",
      "type": "constructor"
    },
    {
      "stateMutability": "payable",
      "type": "fallback"
    },
    {
      "inputs": [],
      "name": "getPendingInsurance",
      "outputs": [],
      "stateMutability": "nonpayable",
      "type": "function"
    },
    {
      "inputs": [],
      "name": "nowTime",
      "outputs": [
        {
          "internalType": "uint256",
          "name": "",
          "type": "uint256"
        }
      ],
      "stateMutability": "nonpayable",
      "type": "function"
    },
    {
      "inputs": [],
      "name": "owner",
      "outputs": [
        {
          "internalType": "address",
          "name": "",
          "type": "address"
        }
      ],
      "stateMutability": "view",
      "type": "function"
    },
    {
      "inputs": [
        {
          "internalType": "uint256",
          "name": "_maxpurchase",
          "type": "uint256"
        },
        {
          "internalType": "enum Shared.Type",
          "name": "_t",
          "type": "uint8"
        },
        {
          "internalType": "uint256",
          "name": "_hoursToWait",
          "type": "uint256"
        }
      ],
      "name": "requestInsurance",
      "outputs": [],
      "stateMutability": "payable",
      "type": "function"
    },
    {
      "inputs": [],
      "name": "retrieveTime",
      "outputs": [
        {
          "internalType": "uint256",
          "name": "",
          "type": "uint256"
        }
      ],
      "stateMutability": "view",
      "type": "function"
    },
    {
      "inputs": [
        {
          "internalType": "address payable",
          "name": "_to",
          "type": "address"
        },
        {
          "internalType": "uint256",
          "name": "_price",
          "type": "uint256"
        }
      ],
      "name": "sendDeposit",
      "outputs": [],
      "stateMutability": "payable",
      "type": "function"
    },
    {
      "stateMutability": "payable",
      "type": "receive"
    }
  ],
  "bytecode": {
    "object": "0x608060405260008055670de0b6b3a764000060015560405162000c3038038062000c30833981016040819052620000369162000256565b60036200004486826200038f565b506004805460ff1916851515179055600583905560066200006683826200038f565b50600b8054306001600160a01b03199182168117909255600d805482166001600160a01b038516908117909155600c80549092168117909155600554604051631ae6fb2d60e01b8152600093631ae6fb2d92620000cd9260039190600690600401620004e0565b6020604051808303816000875af1158015620000ed573d6000803e3d6000fd5b505050506040513d601f19601f820116820180604052508101906200011391906200052b565b905080620001675760405162461bcd60e51b815260206004820152601f60248201527f70726f626c656d73207769746820796f757220726567697374726174696f6e00604482015260640160405180910390fd5b50505050505062000550565b634e487b7160e01b600052604160045260246000fd5b600082601f8301126200019b57600080fd5b81516001600160401b0380821115620001b857620001b862000173565b604051601f8301601f19908116603f01168101908282118183101715620001e357620001e362000173565b816040528381526020925086838588010111156200020057600080fd5b600091505b8382101562000224578582018301518183018401529082019062000205565b83821115620002365760008385830101525b9695505050505050565b805180151581146200025157600080fd5b919050565b600080600080600060a086880312156200026f57600080fd5b85516001600160401b03808211156200028757600080fd5b6200029589838a0162000189565b9650620002a56020890162000240565b9550604088015194506060880151915080821115620002c357600080fd5b50620002d28882890162000189565b608088015190935090506001600160a01b0381168114620002f257600080fd5b809150509295509295909350565b600181811c908216806200031557607f821691505b6020821081036200033657634e487b7160e01b600052602260045260246000fd5b50919050565b601f8211156200038a57600081815260208120601f850160051c81016020861015620003655750805b601f850160051c820191505b81811015620003865782815560010162000371565b5050505b505050565b81516001600160401b03811115620003ab57620003ab62000173565b620003c381620003bc845462000300565b846200033c565b602080601f831160018114620003fb5760008415620003e25750858301515b600019600386901b1c1916600185901b17855562000386565b600085815260208120601f198616915b828110156200042c578886015182559484019460019091019084016200040b565b50858210156200044b5787850151600019600388901b60f8161c191681555b5050505050600190811b01905550565b600081546200046a8162000300565b8085526020600183811680156200048a5760018114620004a557620004d5565b60ff1985168884015283151560051b880183019550620004d5565b866000528260002060005b85811015620004cd5781548a8201860152908301908401620004b0565b890184019650505b505050505092915050565b6001600160a01b038516815260806020820181905260009062000506908301866200045b565b84604084015282810360608401526200052081856200045b565b979650505050505050565b6000602082840312156200053e57600080fd5b620005498262000240565b9392505050565b6106d080620005606000396000f3fe6080604052600436106100595760003560e01c8063335f1b37146100aa57806333eb4df6146100d15780636a0eb96c146100e65780638da5cb5b146100fb578063b453bbd614610133578063e35fd0c71461014857610060565b3661006057005b60003660606000368080601f016020809104026020016040519081016040528093929190818152602001838380828437600092019190915250929350505050915050805190602001f35b3480156100b657600080fd5b504260008190555b6040519081526020015b60405180910390f35b6100e46100df3660046103a1565b61015b565b005b3480156100f257600080fd5b506000546100be565b34801561010757600080fd5b5060025461011b906001600160a01b031681565b6040516001600160a01b0390911681526020016100c8565b34801561013f57600080fd5b506100e4610286565b6100e46101563660046103f2565b6102ff565b42600055478311156101a75760405162461bcd60e51b815260206004820152601060248201526f3737ba1032b737bab3b41032ba3432b960811b60448201526064015b60405180910390fd5b600d546101bd906001600160a01b0316846102ff565b6040805160808101909152600b546001600160a01b03168152600090602081018460028111156101ef576101ef61041e565b81526020810186905260400161020784610e1061044a565b6000546102149190610469565b9052600c54600b5460405163569ebe0760e01b81529293506001600160a01b039182169263569ebe079261024e9216908590600401610481565b600060405180830381600087803b15801561026857600080fd5b505af115801561027c573d6000803e3d6000fd5b5050505050505050565b600c54600b5460405163804e44f360e01b81526001600160a01b03918216600482015291169063804e44f3906024016000604051808303816000875af11580156102d4573d6000803e3d6000fd5b505050506040513d6000823e601f3d908101601f191682016040526102fc91908101906105de565b50565b600080836001600160a01b03168360405160006040518083038185875af1925050503d806000811461034d576040519150601f19603f3d011682016040523d82523d6000602084013e610352565b606091505b50915091508161039b5760405162461bcd60e51b81526020600482015260146024820152732330b4b632b2103a379039b2b7321022ba3432b960611b604482015260640161019e565b50505050565b6000806000606084860312156103b657600080fd5b833592506020840135600381106103cc57600080fd5b929592945050506040919091013590565b6001600160a01b03811681146102fc57600080fd5b6000806040838503121561040557600080fd5b8235610410816103dd565b946020939093013593505050565b634e487b7160e01b600052602160045260246000fd5b634e487b7160e01b600052601160045260246000fd5b600081600019048311821515161561046457610464610434565b500290565b6000821982111561047c5761047c610434565b500190565b6001600160a01b03838116825282511660208083019190915282015160a0820190600381106104c057634e487b7160e01b600052602160045260246000fd5b8060408401525060408301516060830152606083015160808301529392505050565b634e487b7160e01b600052604160045260246000fd5b60405160a0810167ffffffffffffffff8111828210171561051b5761051b6104e2565b60405290565b604051601f8201601f1916810167ffffffffffffffff8111828210171561054a5761054a6104e2565b604052919050565b600082601f83011261056357600080fd5b815167ffffffffffffffff81111561057d5761057d6104e2565b6020610591601f8301601f19168201610521565b82815285828487010111156105a557600080fd5b60005b838110156105c35785810183015182820184015282016105a8565b838111156105d45760008385840101525b5095945050505050565b6000602082840312156105f057600080fd5b815167ffffffffffffffff8082111561060857600080fd5b9083019060a0828603121561061c57600080fd5b6106246104f8565b82518281111561063357600080fd5b61063f87828601610552565b8252506020830151602082015260408301518281111561065e57600080fd5b61066a87828601610552565b604083015250606083015160608201526080830151925061068a836103dd565b608081019290925250939250505056fea264697066735822122087979538252fdd816b16a82ee944dd089290a9635845eb6332cdfda9e5e80e3964736f6c634300080f0033",
    "linkReferences": {}
  },
  "methodIdentifiers": {
    "getPendingInsurance()": "b453bbd6",
    "nowTime()": "335f1b37",
    "owner()": "8da5cb5b",
    "requestInsurance(uint256,uint8,uint256)": "33eb4df6",
    "retrieveTime()": "6a0eb96c",
    "sendDeposit(address,uint256)": "e35fd0c7"
  },
  "id": 13
}