{
  "abi": [
    {
      "inputs": [
        {
          "internalType": "string",
          "name": "_name",
          "type": "string"
        },
        {
          "internalType": "bool",
          "name": "_gender",
          "type": "bool"
        },
        {
          "internalType": "uint256",
          "name": "_birth",
          "type": "uint256"
        },
        {
          "internalType": "string",
          "name": "_discount",
          "type": "string"
        },
        {
          "internalType": "address payable",
          "name": "_handlerAddr",
          "type": "address"
        }
      ],
      "stateMutability": "payable",
      "type": "constructor"
    },
    {
      "stateMutability": "payable",
      "type": "fallback"
    },
    {
      "inputs": [],
      "name": "nowTime",
      "outputs": [
        {
          "internalType": "uint256",
          "name": "",
          "type": "uint256"
        }
      ],
      "stateMutability": "nonpayable",
      "type": "function"
    },
    {
      "inputs": [
        {
          "internalType": "uint256",
          "name": "_maxpurchase",
          "type": "uint256"
        },
        {
          "internalType": "enum Shared.Type",
          "name": "_t",
          "type": "uint8"
        },
        {
          "internalType": "uint256",
          "name": "_hoursToWait",
          "type": "uint256"
        }
      ],
      "name": "requestInsurance",
      "outputs": [],
      "stateMutability": "payable",
      "type": "function"
    },
    {
      "inputs": [
        {
          "internalType": "address payable",
          "name": "_to",
          "type": "address"
        },
        {
          "internalType": "uint256",
          "name": "_price",
          "type": "uint256"
        }
      ],
      "name": "sendDeposit",
      "outputs": [],
      "stateMutability": "payable",
      "type": "function"
    },
    {
      "stateMutability": "payable",
      "type": "receive"
    }
  ],
  "bytecode": {
    "object": "0x608060405260008055670de0b6b3a764000060015560405161089a38038061089a83398101604081905261003291610220565b600261003e8682610349565b506003805460ff19168515151790556004839055600561005e8382610349565b50600b80546001600160a01b0319166001600160a01b038316908117909155600480546040516386818cbf60e01b8152600093926386818cbf926100a89260029260059101610485565b6020604051808303816000875af11580156100c7573d6000803e3d6000fd5b505050506040513d601f19601f820116820180604052508101906100eb91906104b0565b90508061013e5760405162461bcd60e51b815260206004820152601f60248201527f70726f626c656d73207769746820796f757220726567697374726174696f6e00604482015260640160405180910390fd5b5050505050506104d2565b634e487b7160e01b600052604160045260246000fd5b600082601f83011261017057600080fd5b81516001600160401b038082111561018a5761018a610149565b604051601f8301601f19908116603f011681019082821181831017156101b2576101b2610149565b816040528381526020925086838588010111156101ce57600080fd5b600091505b838210156101f057858201830151818301840152908201906101d3565b838211156102015760008385830101525b9695505050505050565b8051801515811461021b57600080fd5b919050565b600080600080600060a0868803121561023857600080fd5b85516001600160401b038082111561024f57600080fd5b61025b89838a0161015f565b96506102696020890161020b565b955060408801519450606088015191508082111561028657600080fd5b506102938882890161015f565b608088015190935090506001600160a01b03811681146102b257600080fd5b809150509295509295909350565b600181811c908216806102d457607f821691505b6020821081036102f457634e487b7160e01b600052602260045260246000fd5b50919050565b601f82111561034457600081815260208120601f850160051c810160208610156103215750805b601f850160051c820191505b818110156103405782815560010161032d565b5050505b505050565b81516001600160401b0381111561036257610362610149565b6103768161037084546102c0565b846102fa565b602080601f8311600181146103ab57600084156103935750858301515b600019600386901b1c1916600185901b178555610340565b600085815260208120601f198616915b828110156103da578886015182559484019460019091019084016103bb565b50858210156103f85787850151600019600388901b60f8161c191681555b5050505050600190811b01905550565b60008154610415816102c0565b808552602060018381168015610432576001811461044c5761047a565b60ff1985168884015283151560051b88018301955061047a565b866000528260002060005b858110156104725781548a8201860152908301908401610457565b890184019650505b505050505092915050565b6060815260006104986060830186610408565b84602084015282810360408401526102018185610408565b6000602082840312156104c257600080fd5b6104cb8261020b565b9392505050565b6103b9806104e16000396000f3fe6080604052600436106100385760003560e01c8063335f1b371461004657806333eb4df61461006b578063e35fd0c7146100805761003f565b3661003f57005b6060516080f35b34801561005257600080fd5b5042600081905560405190815260200160405180910390f35b61007e610079366004610256565b610093565b005b61007e61008e366004610292565b6101b4565b4260005533318311156100e05760405162461bcd60e51b815260206004820152601060248201526f3737ba1032b737bab3b41032ba3432b960811b60448201526064015b60405180910390fd5b600b546100f6906001600160a01b0316846101b4565b60006040518060800160405280336001600160a01b03168152602001846002811115610124576101246102ca565b81526020810186905260400161013c84610e106102f6565b6000546101499190610315565b9052600b5460405163166abbbd60e11b81529192506001600160a01b031690632cd5777a9061017c90849060040161032d565b600060405180830381600087803b15801561019657600080fd5b505af11580156101aa573d6000803e3d6000fd5b5050505050505050565b600080836001600160a01b03168360405160006040518083038185875af1925050503d8060008114610202576040519150601f19603f3d011682016040523d82523d6000602084013e610207565b606091505b5091509150816102505760405162461bcd60e51b81526020600482015260146024820152732330b4b632b2103a379039b2b7321022ba3432b960611b60448201526064016100d7565b50505050565b60008060006060848603121561026b57600080fd5b8335925060208401356003811061028157600080fd5b929592945050506040919091013590565b600080604083850312156102a557600080fd5b82356001600160a01b03811681146102bc57600080fd5b946020939093013593505050565b634e487b7160e01b600052602160045260246000fd5b634e487b7160e01b600052601160045260246000fd5b6000816000190483118215151615610310576103106102e0565b500290565b60008219821115610328576103286102e0565b500190565b81516001600160a01b03168152602082015160808201906003811061036257634e487b7160e01b600052602160045260246000fd5b8060208401525060408301516040830152606083015160608301529291505056fea264697066735822122013a02fa85f75c3dea08d6b1cf02057c3dc7aa7ae93096a75441c82d1c24a369964736f6c634300080f0033",
    "linkReferences": {}
  },
  "methodIdentifiers": {
    "nowTime()": "335f1b37",
    "requestInsurance(uint256,uint8,uint256)": "33eb4df6",
    "sendDeposit(address,uint256)": "e35fd0c7"
  },
  "id": 14
}