{
  "abi": [
    {
      "inputs": [
        {
          "internalType": "string",
          "name": "_name",
          "type": "string"
        },
        {
          "internalType": "bool",
          "name": "_gender",
          "type": "bool"
        },
        {
          "internalType": "uint256",
          "name": "_birth",
          "type": "uint256"
        },
        {
          "internalType": "string",
          "name": "_discount",
          "type": "string"
        },
        {
          "internalType": "address payable",
          "name": "_handlerAddr",
          "type": "address"
        }
      ],
      "stateMutability": "payable",
      "type": "constructor"
    },
    {
      "stateMutability": "payable",
      "type": "fallback"
    },
    {
      "inputs": [
        {
          "internalType": "uint256",
          "name": "id_R",
          "type": "uint256"
        }
      ],
      "name": "addNewInsurance",
      "outputs": [],
      "stateMutability": "nonpayable",
      "type": "function"
    },
    {
      "inputs": [],
      "name": "nowTime",
      "outputs": [
        {
          "internalType": "uint256",
          "name": "",
          "type": "uint256"
        }
      ],
      "stateMutability": "nonpayable",
      "type": "function"
    },
    {
      "inputs": [
        {
          "internalType": "uint256",
          "name": "_maxpurchase",
          "type": "uint256"
        },
        {
          "internalType": "enum Shared.Type",
          "name": "_t",
          "type": "uint8"
        },
        {
          "internalType": "uint256",
          "name": "_hoursToWait",
          "type": "uint256"
        }
      ],
      "name": "requestInsurance",
      "outputs": [],
      "stateMutability": "payable",
      "type": "function"
    },
    {
      "inputs": [
        {
          "internalType": "address payable",
          "name": "_to",
          "type": "address"
        },
        {
          "internalType": "uint256",
          "name": "_price",
          "type": "uint256"
        }
      ],
      "name": "sendDeposit",
      "outputs": [],
      "stateMutability": "payable",
      "type": "function"
    },
    {
      "stateMutability": "payable",
      "type": "receive"
    }
  ],
  "bytecode": {
    "object": "0x608060405260008055670de0b6b3a76400006001556000600b5560405162000af538038062000af58339810160408190526200003b9162000254565b60026200004986826200038d565b506003805460ff1916851515179055600483905560056200006b83826200038d565b50600c80546001600160a01b0319166001600160a01b038316908117909155600480546040516386818cbf60e01b8152600093926386818cbf92620000b79260029260059101620004de565b6020604051808303816000875af1158015620000d7573d6000803e3d6000fd5b505050506040513d601f19601f82011682018060405250810190620000fd91906200050d565b905080620001655760405162461bcd60e51b815260206004820152602b60248201527f636920736f6e6f2073746174692070726f626c656d6920636f6e206c6120726560448201526a6769737472617a696f6e6560a81b606482015260840160405180910390fd5b50505050505062000532565b634e487b7160e01b600052604160045260246000fd5b600082601f8301126200019957600080fd5b81516001600160401b0380821115620001b657620001b662000171565b604051601f8301601f19908116603f01168101908282118183101715620001e157620001e162000171565b81604052838152602092508683858801011115620001fe57600080fd5b600091505b8382101562000222578582018301518183018401529082019062000203565b83821115620002345760008385830101525b9695505050505050565b805180151581146200024f57600080fd5b919050565b600080600080600060a086880312156200026d57600080fd5b85516001600160401b03808211156200028557600080fd5b6200029389838a0162000187565b9650620002a3602089016200023e565b9550604088015194506060880151915080821115620002c157600080fd5b50620002d08882890162000187565b608088015190935090506001600160a01b0381168114620002f057600080fd5b809150509295509295909350565b600181811c908216806200031357607f821691505b6020821081036200033457634e487b7160e01b600052602260045260246000fd5b50919050565b601f8211156200038857600081815260208120601f850160051c81016020861015620003635750805b601f850160051c820191505b8181101562000384578281556001016200036f565b5050505b505050565b81516001600160401b03811115620003a957620003a962000171565b620003c181620003ba8454620002fe565b846200033a565b602080601f831160018114620003f95760008415620003e05750858301515b600019600386901b1c1916600185901b17855562000384565b600085815260208120601f198616915b828110156200042a5788860151825594840194600190910190840162000409565b5085821015620004495787850151600019600388901b60f8161c191681555b5050505050600190811b01905550565b600081546200046881620002fe565b808552602060018381168015620004885760018114620004a357620004d3565b60ff1985168884015283151560051b880183019550620004d3565b866000528260002060005b85811015620004cb5781548a8201860152908301908401620004ae565b890184019650505b505050505092915050565b606081526000620004f3606083018662000459565b846020840152828103604084015262000234818562000459565b6000602082840312156200052057600080fd5b6200052b826200023e565b9392505050565b6105b380620005426000396000f3fe6080604052600436106100435760003560e01c8063335f1b371461005157806333eb4df6146100765780636723e2691461008b578063e35fd0c7146100ab5761004a565b3661004a57005b6060516080f35b34801561005d57600080fd5b5042600081905560405190815260200160405180910390f35b6100896100843660046103b9565b6100be565b005b34801561009757600080fd5b506100896100a63660046103f1565b6101f7565b6100896100b936600461041f565b610307565b4260005533318311156101235760405162461bcd60e51b815260206004820152602260248201527f6e6f6e20736920706f73736965646f6e6f20616262617374616e7a6120666f6e604482015261646960f01b60648201526084015b60405180910390fd5b600c54610139906001600160a01b031684610307565b60006040518060800160405280336001600160a01b031681526020018460028111156101675761016761044b565b81526020810186905260400161017f84610e10610477565b60005461018c9190610496565b9052600c5460405163166abbbd60e11b81529192506001600160a01b031690632cd5777a906101bf9084906004016104ae565b600060405180830381600087803b1580156101d957600080fd5b505af11580156101ed573d6000803e3d6000fd5b5050505050505050565b6040805160608101825260008082526020820181905291810191909152600c546040516318feeb1560e31b8152600481018490526001600160a01b039091169063c7f758a890602401606060405180830381865afa15801561025d573d6000803e3d6000fd5b505050506040513d601f19601f820116820180604052508101906102819190610504565b600b546000908152600a60209081526040909120825181546001600160a01b039091166001600160a01b0319821681178355928401519394508493919283916001600160a81b03191617600160a01b8360028111156102e2576102e261044b565b021790555060409190910151600191820155600b5461030091610496565b600b555050565b600080836001600160a01b03168360405160006040518083038185875af1925050503d8060008114610355576040519150601f19603f3d011682016040523d82523d6000602084013e61035a565b606091505b5091509150816103a35760405162461bcd60e51b81526020600482015260146024820152732330b4b632b2103a379039b2b7321022ba3432b960611b604482015260640161011a565b50505050565b600381106103b657600080fd5b50565b6000806000606084860312156103ce57600080fd5b8335925060208401356103e0816103a9565b929592945050506040919091013590565b60006020828403121561040357600080fd5b5035919050565b6001600160a01b03811681146103b657600080fd5b6000806040838503121561043257600080fd5b823561043d8161040a565b946020939093013593505050565b634e487b7160e01b600052602160045260246000fd5b634e487b7160e01b600052601160045260246000fd5b600081600019048311821515161561049157610491610461565b500290565b600082198211156104a9576104a9610461565b500190565b81516001600160a01b0316815260208201516080820190600381106104e357634e487b7160e01b600052602160045260246000fd5b80602084015250604083015160408301526060830151606083015292915050565b60006060828403121561051657600080fd5b6040516060810181811067ffffffffffffffff8211171561054757634e487b7160e01b600052604160045260246000fd5b60405282516105558161040a565b81526020830151610565816103a9565b6020820152604092830151928101929092525091905056fea2646970667358221220982a3f65a3b12ccbf07424d162fc22857e5856da514fc0db16640d48aeb0ec7b64736f6c634300080f0033",
    "linkReferences": {}
  },
  "methodIdentifiers": {
    "addNewInsurance(uint256)": "6723e269",
    "nowTime()": "335f1b37",
    "requestInsurance(uint256,uint8,uint256)": "33eb4df6",
    "sendDeposit(address,uint256)": "e35fd0c7"
  },
  "id": 14
}