{
  "abi": [
    {
      "inputs": [
        {
          "internalType": "string",
          "name": "_name",
          "type": "string"
        },
        {
          "internalType": "bool",
          "name": "_gender",
          "type": "bool"
        },
        {
          "internalType": "uint256",
          "name": "_birth",
          "type": "uint256"
        },
        {
          "internalType": "string",
          "name": "_discount",
          "type": "string"
        },
        {
          "internalType": "address payable",
          "name": "_handlerAddr",
          "type": "address"
        }
      ],
      "stateMutability": "payable",
      "type": "constructor"
    },
    {
      "stateMutability": "payable",
      "type": "fallback"
    },
    {
      "inputs": [],
      "name": "getPendingInsurance",
      "outputs": [],
      "stateMutability": "nonpayable",
      "type": "function"
    },
    {
      "inputs": [],
      "name": "nowTime",
      "outputs": [
        {
          "internalType": "uint256",
          "name": "",
          "type": "uint256"
        }
      ],
      "stateMutability": "nonpayable",
      "type": "function"
    },
    {
      "inputs": [
        {
          "internalType": "uint256",
          "name": "_maxpurchase",
          "type": "uint256"
        },
        {
          "internalType": "enum Shared.Type",
          "name": "_t",
          "type": "uint8"
        },
        {
          "internalType": "uint256",
          "name": "_hoursToWait",
          "type": "uint256"
        }
      ],
      "name": "requestInsurance",
      "outputs": [],
      "stateMutability": "payable",
      "type": "function"
    },
    {
      "inputs": [],
      "name": "retrieveTime",
      "outputs": [
        {
          "internalType": "uint256",
          "name": "",
          "type": "uint256"
        }
      ],
      "stateMutability": "view",
      "type": "function"
    },
    {
      "inputs": [
        {
          "internalType": "address payable",
          "name": "_to",
          "type": "address"
        },
        {
          "internalType": "uint256",
          "name": "_price",
          "type": "uint256"
        }
      ],
      "name": "sendDeposit",
      "outputs": [],
      "stateMutability": "payable",
      "type": "function"
    },
    {
      "stateMutability": "payable",
      "type": "receive"
    }
  ],
  "bytecode": {
    "object": "0x608060405260008055670de0b6b3a764000060015560405162000bed38038062000bed833981016040819052620000369162000257565b600262000044868262000390565b506003805460ff19168515151790556004839055600562000066838262000390565b50600a8054306001600160a01b03199182168117909255600d805482166001600160a01b038516908117909155600c8054909216811790915560048054604051631ae6fb2d60e01b8152600094631ae6fb2d93620000ce9391926002929160059101620004e1565b6020604051808303816000875af1158015620000ee573d6000803e3d6000fd5b505050506040513d601f19601f820116820180604052508101906200011491906200052c565b905080620001685760405162461bcd60e51b815260206004820152601f60248201527f70726f626c656d73207769746820796f757220726567697374726174696f6e00604482015260640160405180910390fd5b50505050505062000551565b634e487b7160e01b600052604160045260246000fd5b600082601f8301126200019c57600080fd5b81516001600160401b0380821115620001b957620001b962000174565b604051601f8301601f19908116603f01168101908282118183101715620001e457620001e462000174565b816040528381526020925086838588010111156200020157600080fd5b600091505b8382101562000225578582018301518183018401529082019062000206565b83821115620002375760008385830101525b9695505050505050565b805180151581146200025257600080fd5b919050565b600080600080600060a086880312156200027057600080fd5b85516001600160401b03808211156200028857600080fd5b6200029689838a016200018a565b9650620002a66020890162000241565b9550604088015194506060880151915080821115620002c457600080fd5b50620002d3888289016200018a565b608088015190935090506001600160a01b0381168114620002f357600080fd5b809150509295509295909350565b600181811c908216806200031657607f821691505b6020821081036200033757634e487b7160e01b600052602260045260246000fd5b50919050565b601f8211156200038b57600081815260208120601f850160051c81016020861015620003665750805b601f850160051c820191505b81811015620003875782815560010162000372565b5050505b505050565b81516001600160401b03811115620003ac57620003ac62000174565b620003c481620003bd845462000301565b846200033d565b602080601f831160018114620003fc5760008415620003e35750858301515b600019600386901b1c1916600185901b17855562000387565b600085815260208120601f198616915b828110156200042d578886015182559484019460019091019084016200040c565b50858210156200044c5787850151600019600388901b60f8161c191681555b5050505050600190811b01905550565b600081546200046b8162000301565b8085526020600183811680156200048b5760018114620004a657620004d6565b60ff1985168884015283151560051b880183019550620004d6565b866000528260002060005b85811015620004ce5781548a8201860152908301908401620004b1565b890184019650505b505050505092915050565b6001600160a01b038516815260806020820181905260009062000507908301866200045c565b84604084015282810360608401526200052181856200045c565b979650505050505050565b6000602082840312156200053f57600080fd5b6200054a8262000241565b9392505050565b61068c80620005616000396000f3fe60806040526004361061004e5760003560e01c8063335f1b371461009f57806333eb4df6146100c55780636a0eb96c146100da578063b453bbd6146100ef578063e35fd0c71461010457610055565b3661005557005b60003660606000368080601f016020809104026020016040519081016040528093929190818152602001838380828437600092019190915250929350505050915050805190602001f35b3480156100ab57600080fd5b504260008190555b60405190815260200160405180910390f35b6100d86100d336600461035d565b610117565b005b3480156100e657600080fd5b506000546100b3565b3480156100fb57600080fd5b506100d8610242565b6100d86101123660046103ae565b6102bb565b42600055478311156101635760405162461bcd60e51b815260206004820152601060248201526f3737ba1032b737bab3b41032ba3432b960811b60448201526064015b60405180910390fd5b600d54610179906001600160a01b0316846102bb565b6040805160808101909152600a546001600160a01b03168152600090602081018460028111156101ab576101ab6103da565b8152602081018690526040016101c384610e10610406565b6000546101d09190610425565b9052600c54600a5460405163569ebe0760e01b81529293506001600160a01b039182169263569ebe079261020a921690859060040161043d565b600060405180830381600087803b15801561022457600080fd5b505af1158015610238573d6000803e3d6000fd5b5050505050505050565b600c54600a5460405163804e44f360e01b81526001600160a01b03918216600482015291169063804e44f3906024016000604051808303816000875af1158015610290573d6000803e3d6000fd5b505050506040513d6000823e601f3d908101601f191682016040526102b8919081019061059a565b50565b600080836001600160a01b03168360405160006040518083038185875af1925050503d8060008114610309576040519150601f19603f3d011682016040523d82523d6000602084013e61030e565b606091505b5091509150816103575760405162461bcd60e51b81526020600482015260146024820152732330b4b632b2103a379039b2b7321022ba3432b960611b604482015260640161015a565b50505050565b60008060006060848603121561037257600080fd5b8335925060208401356003811061038857600080fd5b929592945050506040919091013590565b6001600160a01b03811681146102b857600080fd5b600080604083850312156103c157600080fd5b82356103cc81610399565b946020939093013593505050565b634e487b7160e01b600052602160045260246000fd5b634e487b7160e01b600052601160045260246000fd5b6000816000190483118215151615610420576104206103f0565b500290565b60008219821115610438576104386103f0565b500190565b6001600160a01b03838116825282511660208083019190915282015160a08201906003811061047c57634e487b7160e01b600052602160045260246000fd5b8060408401525060408301516060830152606083015160808301529392505050565b634e487b7160e01b600052604160045260246000fd5b60405160a0810167ffffffffffffffff811182821017156104d7576104d761049e565b60405290565b604051601f8201601f1916810167ffffffffffffffff811182821017156105065761050661049e565b604052919050565b600082601f83011261051f57600080fd5b815167ffffffffffffffff8111156105395761053961049e565b602061054d601f8301601f191682016104dd565b828152858284870101111561056157600080fd5b60005b8381101561057f578581018301518282018401528201610564565b838111156105905760008385840101525b5095945050505050565b6000602082840312156105ac57600080fd5b815167ffffffffffffffff808211156105c457600080fd5b9083019060a082860312156105d857600080fd5b6105e06104b4565b8251828111156105ef57600080fd5b6105fb8782860161050e565b8252506020830151602082015260408301518281111561061a57600080fd5b6106268782860161050e565b604083015250606083015160608201526080830151925061064683610399565b608081019290925250939250505056fea26469706673582212207b55b23be4de56d1cd1155ce785d37672f839ba389ebbc376df37f965e8f42a264736f6c634300080f0033",
    "linkReferences": {}
  },
  "methodIdentifiers": {
    "getPendingInsurance()": "b453bbd6",
    "nowTime()": "335f1b37",
    "requestInsurance(uint256,uint8,uint256)": "33eb4df6",
    "retrieveTime()": "6a0eb96c",
    "sendDeposit(address,uint256)": "e35fd0c7"
  },
  "id": 14
}