{
  "abi": [
    {
      "inputs": [],
      "stateMutability": "nonpayable",
      "type": "constructor"
    },
    {
      "inputs": [
        {
          "components": [
            {
              "internalType": "address payable",
              "name": "clientWallet",
              "type": "address"
            },
            {
              "internalType": "enum Shared.Type",
              "name": "t",
              "type": "uint8"
            },
            {
              "internalType": "uint256",
              "name": "maxp",
              "type": "uint256"
            },
            {
              "internalType": "uint256",
              "name": "scadenza",
              "type": "uint256"
            }
          ],
          "internalType": "struct Shared.Request",
          "name": "_newRequest",
          "type": "tuple"
        }
      ],
      "name": "askNewInsurance",
      "outputs": [],
      "stateMutability": "payable",
      "type": "function"
    },
    {
      "inputs": [
        {
          "internalType": "uint256",
          "name": "to_buy",
          "type": "uint256"
        }
      ],
      "name": "buyProposal",
      "outputs": [],
      "stateMutability": "nonpayable",
      "type": "function"
    },
    {
      "inputs": [
        {
          "internalType": "uint256",
          "name": "_idR",
          "type": "uint256"
        }
      ],
      "name": "getProposal",
      "outputs": [
        {
          "components": [
            {
              "internalType": "address payable",
              "name": "provider",
              "type": "address"
            },
            {
              "internalType": "enum Shared.Type",
              "name": "insurance_type",
              "type": "uint8"
            },
            {
              "internalType": "uint256",
              "name": "price",
              "type": "uint256"
            }
          ],
          "internalType": "struct Shared.InsuranceItem",
          "name": "",
          "type": "tuple"
        }
      ],
      "stateMutability": "view",
      "type": "function"
    },
    {
      "inputs": [
        {
          "internalType": "uint256",
          "name": "_idR",
          "type": "uint256"
        }
      ],
      "name": "getRequest",
      "outputs": [
        {
          "components": [
            {
              "internalType": "address payable",
              "name": "clientWallet",
              "type": "address"
            },
            {
              "internalType": "enum Shared.Type",
              "name": "t",
              "type": "uint8"
            },
            {
              "internalType": "uint256",
              "name": "maxp",
              "type": "uint256"
            },
            {
              "internalType": "uint256",
              "name": "scadenza",
              "type": "uint256"
            }
          ],
          "internalType": "struct Shared.Request",
          "name": "",
          "type": "tuple"
        }
      ],
      "stateMutability": "view",
      "type": "function"
    },
    {
      "inputs": [
        {
          "internalType": "address",
          "name": "_client",
          "type": "address"
        }
      ],
      "name": "getRequestsByClient",
      "outputs": [
        {
          "internalType": "uint256[]",
          "name": "",
          "type": "uint256[]"
        }
      ],
      "stateMutability": "view",
      "type": "function"
    },
    {
      "inputs": [
        {
          "internalType": "uint256",
          "name": "",
          "type": "uint256"
        }
      ],
      "name": "indexed_requests",
      "outputs": [
        {
          "internalType": "address payable",
          "name": "clientWallet",
          "type": "address"
        },
        {
          "internalType": "enum Shared.Type",
          "name": "t",
          "type": "uint8"
        },
        {
          "internalType": "uint256",
          "name": "maxp",
          "type": "uint256"
        },
        {
          "internalType": "uint256",
          "name": "scadenza",
          "type": "uint256"
        }
      ],
      "stateMutability": "view",
      "type": "function"
    },
    {
      "inputs": [],
      "name": "newClient",
      "outputs": [
        {
          "internalType": "string",
          "name": "name",
          "type": "string"
        },
        {
          "internalType": "uint256",
          "name": "birth",
          "type": "uint256"
        },
        {
          "internalType": "string",
          "name": "discount_n",
          "type": "string"
        },
        {
          "internalType": "uint256",
          "name": "pending",
          "type": "uint256"
        },
        {
          "internalType": "address payable",
          "name": "_clientWallet",
          "type": "address"
        }
      ],
      "stateMutability": "view",
      "type": "function"
    },
    {
      "inputs": [],
      "name": "nowTime",
      "outputs": [
        {
          "internalType": "uint256",
          "name": "",
          "type": "uint256"
        }
      ],
      "stateMutability": "nonpayable",
      "type": "function"
    },
    {
      "inputs": [
        {
          "internalType": "address payable",
          "name": "_to",
          "type": "address"
        },
        {
          "internalType": "uint256",
          "name": "_price",
          "type": "uint256"
        }
      ],
      "name": "sendDeposit",
      "outputs": [],
      "stateMutability": "payable",
      "type": "function"
    },
    {
      "inputs": [
        {
          "internalType": "string",
          "name": "_cName",
          "type": "string"
        },
        {
          "internalType": "uint256",
          "name": "_cBirth",
          "type": "uint256"
        },
        {
          "internalType": "string",
          "name": "_cDiscount",
          "type": "string"
        }
      ],
      "name": "setClient",
      "outputs": [
        {
          "internalType": "bool",
          "name": "",
          "type": "bool"
        }
      ],
      "stateMutability": "nonpayable",
      "type": "function"
    },
    {
      "inputs": [
        {
          "internalType": "uint256",
          "name": "id_request",
          "type": "uint256"
        },
        {
          "components": [
            {
              "internalType": "address payable",
              "name": "provider",
              "type": "address"
            },
            {
              "internalType": "enum Shared.Type",
              "name": "insurance_type",
              "type": "uint8"
            },
            {
              "internalType": "uint256",
              "name": "price",
              "type": "uint256"
            }
          ],
          "internalType": "struct Shared.InsuranceItem",
          "name": "_prop",
          "type": "tuple"
        }
      ],
      "name": "setProposal",
      "outputs": [],
      "stateMutability": "nonpayable",
      "type": "function"
    },
    {
      "inputs": [
        {
          "internalType": "address payable[]",
          "name": "_prov",
          "type": "address[]"
        }
      ],
      "name": "setProviders",
      "outputs": [],
      "stateMutability": "nonpayable",
      "type": "function"
    },
    {
      "stateMutability": "payable",
      "type": "receive"
    }
  ],
  "bytecode": {
    "object": "0x608060405260008055670de0b6b3a76400006001556000600355600060055534801561002a57600080fd5b506116618061003a6000396000f3fe6080604052600436106100ab5760003560e01c8063b8f97b7411610064578063b8f97b74146101b5578063c58343ef146101d5578063c7f758a814610202578063e35fd0c71461022f578063e887ccd314610242578063ee59fb991461026f57600080fd5b80631b6778d5146100e45780631b98f6ac146101065780632cd5777a14610126578063335f1b371461013957806386818cbf1461015f578063883d0cae1461018f57600080fd5b366100df57336000908152600a60205260409020546100cb903490610e91565b336000908152600a60205260409020819055005b600080fd5b3480156100f057600080fd5b506101046100ff366004610f19565b6102d0565b005b34801561011257600080fd5b50610104610121366004610f9e565b6105b1565b610104610134366004611050565b6106a9565b34801561014557600080fd5b504260008190556040519081526020015b60405180910390f35b34801561016b57600080fd5b5061017f61017a366004611134565b6107f7565b6040519015158152602001610156565b34801561019b57600080fd5b506101a46108fd565b6040516101569594939291906111ee565b3480156101c157600080fd5b506101046101d036600461123c565b610a39565b3480156101e157600080fd5b506101f56101f036600461123c565b610b3a565b604051610156919061128d565b34801561020e57600080fd5b5061022261021d36600461123c565b610bde565b60405161015691906112cc565b61010461023d3660046112ff565b610d54565b34801561024e57600080fd5b5061026261025d36600461132b565b610df6565b604051610156919061134f565b34801561027b57600080fd5b506102c061028a36600461123c565b6006602052600090815260409020805460018201546002909201546001600160a01b03821692600160a01b90920460ff16919084565b6040516101569493929190611393565b42600081815583815260066020526040902060020154116103385760405162461bcd60e51b815260206004820152601a60248201527f74656d706f207363616475746f207065722070726f706f73746500000000000060448201526064015b60405180910390fd5b6000828152600760205260409020600101541580156103b55750604080820151600084815260066020529190912060010154108015906103b557508060200151600281111561038957610389611255565b600083815260066020526040902054600160a01b900460ff1660028111156103b3576103b3611255565b145b1561042c576000828152600760209081526040909120825181546001600160a01b031981166001600160a01b039092169182178355928401518493909183916001600160a81b03191617600160a01b83600281111561041657610416611255565b0217905550604082015181600101559050505050565b60408082015160008481526007602052919091206001015410156104925760405162461bcd60e51b815260206004820152601f60248201527f70726573656e74652061737369637572617a696f6e65206d69676c696f726500604482015260640161032f565b6040808201516000848152600760205291909120600101540361050c5760405162461bcd60e51b815260206004820152602c60248201527f70726f706f73746120756775616c652061207175656c6c612070726573656e7460448201526b65206d61207461726469766160a01b606482015260840161032f565b8060200151600281111561052257610522611255565b600083815260076020526040902054600160a01b900460ff16600281111561054c5761054c611255565b036105ad576000828152600760209081526040909120825181546001600160a01b031981166001600160a01b039092169182178355928401518493909183916001600160a81b03191617600160a01b83600281111561041657610416611255565b5050565b60035460000361062957805160035560005b6003548110156105ad578181815181106105df576105df6113c2565b60209081029190910181015160008381526002909252604090912080546001600160a01b0319166001600160a01b0390921691909117905580610621816113d8565b9150506105c3565b60035481516106389082610e91565b600355805b6003548110156106a357828181518110610659576106596113c2565b60209081029190910181015160008381526002909252604090912080546001600160a01b0319166001600160a01b039092169190911790558061069b816113d8565b91505061063d565b50505b50565b604080820151336000908152600a602052919091205410156107055760405162461bcd60e51b81526020600482015260156024820152741b9bdd08195b9bdd59da08195d1a195c881cd95b9d605a1b604482015260640161032f565b33600081815260096020526040902060030154610723906001610e91565b6001600160a01b038083166000908152600960209081526040808320600301949094556005548252600681529290208451815492166001600160a01b03198316811782559285015185939192909183916001600160a81b03191617600160a01b83600281111561079557610795611255565b0217905550604082015181600101556060820151816002015590505060055460016107c09190610e91565b60058190556001600160a01b0390911660009081526008602090815260408083206009835281842060030154845290915290205550565b6040805160a0810182528481526020810184905290810182905260006060820181905233608083018190529091829190600b806108348982611479565b5060208201516001820155604082015160028201906108539082611479565b5060608201516003820155608090910151600490910180546001600160a01b0319166001600160a01b0392831617905581166000908152600960205260409020600b90806108a18382611539565b5060018201548160010155600282018160020190816108c09190611539565b5060038281015490820155600491820154910180546001600160a01b0319166001600160a01b039092169190911790555060019150509392505050565b600b8054819061090c906113f1565b80601f0160208091040260200160405190810160405280929190818152602001828054610938906113f1565b80156109855780601f1061095a57610100808354040283529160200191610985565b820191906000526020600020905b81548152906001019060200180831161096857829003601f168201915b5050505050908060010154908060020180546109a0906113f1565b80601f01602080910402602001604051908101604052809291908181526020018280546109cc906113f1565b8015610a195780601f106109ee57610100808354040283529160200191610a19565b820191906000526020600020905b8154815290600101906020018083116109fc57829003601f168201915b5050505060038301546004909301549192916001600160a01b0316905085565b426000818155828152600660205260409020600201541115610ab15760405162461bcd60e51b815260206004820152602b60248201527f6e6f6e2070756f6920616e636f726120636f6d70726172652c2074656d706f2060448201526a6e6f6e207363616475746f60a81b606482015260840161032f565b60008181526007602052604090208054600190910154610ada916001600160a01b031690610d54565b60008181526006602081815260408084208054600784529185206001908101549490935291909101546001600160a01b0390911691610b1891611614565b9150610b248183610d54565b5050600090815260076020526040812060010155565b610b66604080516080810190915260008082526020820190815260200160008152602001600081525090565b60008281526006602090815260409182902082516080810190935280546001600160a01b03811684529091830190600160a01b900460ff166002811115610baf57610baf611255565b6002811115610bc057610bc0611255565b81526001820154602082015260029091015460409091015292915050565b604080516060810182526000808252602082018190529181019190915260008281526007602052604090206001015415610c695760405162461bcd60e51b815260206004820152602660248201527f636869616d617265207072696d61206c612066756e7a696f6e6520646920616360448201526571756973746f60d01b606482015260840161032f565b6000828152600660205260409020546001600160a01b03163314610ce55760405162461bcd60e51b815260206004820152602d60248201527f736f6c6f20696c20636c69656e7465207269636869656465206c61207375612060448201526c61737369637572617a696f6e6560981b606482015260840161032f565b60008281526007602090815260409182902082516060810190935280546001600160a01b03811684529091830190600160a01b900460ff166002811115610d2e57610d2e611255565b6002811115610d3f57610d3f611255565b81526020016001820154815250509050919050565b600080836001600160a01b03168360405160006040518083038185875af1925050503d8060008114610da2576040519150601f19603f3d011682016040523d82523d6000602084013e610da7565b606091505b509150915081610df05760405162461bcd60e51b81526020600482015260146024820152732330b4b632b2103a379039b2b7321022ba3432b960611b604482015260640161032f565b50505050565b60608060005b6001600160a01b038416600090815260096020526040902060030154811015610e74576001600160a01b03841660009081526008602090815260408083208484529091529020548251839083908110610e5757610e576113c2565b602090810291909101015280610e6c816113d8565b915050610dfc565b5092915050565b634e487b7160e01b600052601160045260246000fd5b60008219821115610ea457610ea4610e7b565b500190565b634e487b7160e01b600052604160045260246000fd5b604051601f8201601f1916810167ffffffffffffffff81118282101715610ee857610ee8610ea9565b604052919050565b6001600160a01b03811681146106a657600080fd5b803560038110610f1457600080fd5b919050565b6000808284036080811215610f2d57600080fd5b833592506060601f1982011215610f4357600080fd5b506040516060810181811067ffffffffffffffff82111715610f6757610f67610ea9565b6040526020840135610f7881610ef0565b8152610f8660408501610f05565b60208201526060939093013560408401525092909150565b60006020808385031215610fb157600080fd5b823567ffffffffffffffff80821115610fc957600080fd5b818501915085601f830112610fdd57600080fd5b813581811115610fef57610fef610ea9565b8060051b9150611000848301610ebf565b818152918301840191848101908884111561101a57600080fd5b938501935b83851015611044578435925061103483610ef0565b828252938501939085019061101f565b98975050505050505050565b60006080828403121561106257600080fd5b6040516080810181811067ffffffffffffffff8211171561108557611085610ea9565b604052823561109381610ef0565b81526110a160208401610f05565b602082015260408301356040820152606083013560608201528091505092915050565b600082601f8301126110d557600080fd5b813567ffffffffffffffff8111156110ef576110ef610ea9565b611102601f8201601f1916602001610ebf565b81815284602083860101111561111757600080fd5b816020850160208301376000918101602001919091529392505050565b60008060006060848603121561114957600080fd5b833567ffffffffffffffff8082111561116157600080fd5b61116d878388016110c4565b945060208601359350604086013591508082111561118a57600080fd5b50611197868287016110c4565b9150509250925092565b6000815180845260005b818110156111c7576020818501810151868301820152016111ab565b818111156111d9576000602083870101525b50601f01601f19169290920160200192915050565b60a08152600061120160a08301886111a1565b866020840152828103604084015261121981876111a1565b606084019590955250506001600160a01b03919091166080909101529392505050565b60006020828403121561124e57600080fd5b5035919050565b634e487b7160e01b600052602160045260246000fd5b6003811061128957634e487b7160e01b600052602160045260246000fd5b9052565b81516001600160a01b0316815260208083015160808301916112b19084018261126b565b50604083015160408301526060830151606083015292915050565b81516001600160a01b0316815260208083015160608301916112f09084018261126b565b50604092830151919092015290565b6000806040838503121561131257600080fd5b823561131d81610ef0565b946020939093013593505050565b60006020828403121561133d57600080fd5b813561134881610ef0565b9392505050565b6020808252825182820181905260009190848201906040850190845b818110156113875783518352928401929184019160010161136b565b50909695505050505050565b6001600160a01b0385168152608081016113b0602083018661126b565b60408201939093526060015292915050565b634e487b7160e01b600052603260045260246000fd5b6000600182016113ea576113ea610e7b565b5060010190565b600181811c9082168061140557607f821691505b60208210810361142557634e487b7160e01b600052602260045260246000fd5b50919050565b601f8211156106a357600081815260208120601f850160051c810160208610156114525750805b601f850160051c820191505b818110156114715782815560010161145e565b505050505050565b815167ffffffffffffffff81111561149357611493610ea9565b6114a7816114a184546113f1565b8461142b565b602080601f8311600181146114dc57600084156114c45750858301515b600019600386901b1c1916600185901b178555611471565b600085815260208120601f198616915b8281101561150b578886015182559484019460019091019084016114ec565b50858210156115295787850151600019600388901b60f8161c191681555b5050505050600190811b01905550565b818103611544575050565b61154e82546113f1565b67ffffffffffffffff81111561156657611566610ea9565b611574816114a184546113f1565b6000601f8211600181146115a857600083156115905750848201545b600019600385901b1c1916600184901b17845561160d565b600085815260209020601f19841690600086815260209020845b838110156115e257828601548255600195860195909101906020016115c2565b50858310156116005781850154600019600388901b60f8161c191681555b50505060018360011b0184555b5050505050565b60008282101561162657611626610e7b565b50039056fea2646970667358221220d7fd2319fede7c79d7009e4f37b022e6375af49884cdf9ad097a484b45e5a29d64736f6c634300080f0033",
    "linkReferences": {}
  },
  "methodIdentifiers": {
    "askNewInsurance((address,uint8,uint256,uint256))": "2cd5777a",
    "buyProposal(uint256)": "b8f97b74",
    "getProposal(uint256)": "c7f758a8",
    "getRequest(uint256)": "c58343ef",
    "getRequestsByClient(address)": "e887ccd3",
    "indexed_requests(uint256)": "ee59fb99",
    "newClient()": "883d0cae",
    "nowTime()": "335f1b37",
    "sendDeposit(address,uint256)": "e35fd0c7",
    "setClient(string,uint256,string)": "86818cbf",
    "setProposal(uint256,(address,uint8,uint256))": "1b6778d5",
    "setProviders(address[])": "1b98f6ac"
  },
  "id": 16
}