{
  "abi": [
    {
      "inputs": [],
      "stateMutability": "nonpayable",
      "type": "constructor"
    },
    {
      "inputs": [
        {
          "components": [
            {
              "internalType": "address payable",
              "name": "clientWallet",
              "type": "address"
            },
            {
              "internalType": "enum Shared.Type",
              "name": "t",
              "type": "uint8"
            },
            {
              "internalType": "uint256",
              "name": "maxp",
              "type": "uint256"
            },
            {
              "internalType": "uint256",
              "name": "scadenza",
              "type": "uint256"
            }
          ],
          "internalType": "struct Shared.Request",
          "name": "_newRequest",
          "type": "tuple"
        }
      ],
      "name": "askNewInsurance",
      "outputs": [],
      "stateMutability": "payable",
      "type": "function"
    },
    {
      "inputs": [
        {
          "internalType": "uint256",
          "name": "to_buy",
          "type": "uint256"
        }
      ],
      "name": "buyProposal",
      "outputs": [],
      "stateMutability": "nonpayable",
      "type": "function"
    },
    {
      "inputs": [
        {
          "internalType": "uint256",
          "name": "_idR",
          "type": "uint256"
        }
      ],
      "name": "getProposal",
      "outputs": [
        {
          "components": [
            {
              "internalType": "address payable",
              "name": "provider",
              "type": "address"
            },
            {
              "internalType": "enum Shared.Type",
              "name": "insurance_type",
              "type": "uint8"
            },
            {
              "internalType": "uint256",
              "name": "price",
              "type": "uint256"
            }
          ],
          "internalType": "struct Shared.InsuranceItem",
          "name": "",
          "type": "tuple"
        }
      ],
      "stateMutability": "view",
      "type": "function"
    },
    {
      "inputs": [
        {
          "internalType": "uint256",
          "name": "_idR",
          "type": "uint256"
        }
      ],
      "name": "getRequest",
      "outputs": [
        {
          "components": [
            {
              "internalType": "address payable",
              "name": "clientWallet",
              "type": "address"
            },
            {
              "internalType": "enum Shared.Type",
              "name": "t",
              "type": "uint8"
            },
            {
              "internalType": "uint256",
              "name": "maxp",
              "type": "uint256"
            },
            {
              "internalType": "uint256",
              "name": "scadenza",
              "type": "uint256"
            }
          ],
          "internalType": "struct Shared.Request",
          "name": "",
          "type": "tuple"
        }
      ],
      "stateMutability": "view",
      "type": "function"
    },
    {
      "inputs": [
        {
          "internalType": "address",
          "name": "_client",
          "type": "address"
        }
      ],
      "name": "getRequestsByClient",
      "outputs": [
        {
          "internalType": "uint256[]",
          "name": "",
          "type": "uint256[]"
        }
      ],
      "stateMutability": "view",
      "type": "function"
    },
    {
      "inputs": [
        {
          "internalType": "uint256",
          "name": "",
          "type": "uint256"
        }
      ],
      "name": "indexed_requests",
      "outputs": [
        {
          "internalType": "address payable",
          "name": "clientWallet",
          "type": "address"
        },
        {
          "internalType": "enum Shared.Type",
          "name": "t",
          "type": "uint8"
        },
        {
          "internalType": "uint256",
          "name": "maxp",
          "type": "uint256"
        },
        {
          "internalType": "uint256",
          "name": "scadenza",
          "type": "uint256"
        }
      ],
      "stateMutability": "view",
      "type": "function"
    },
    {
      "inputs": [],
      "name": "newClient",
      "outputs": [
        {
          "internalType": "string",
          "name": "name",
          "type": "string"
        },
        {
          "internalType": "uint256",
          "name": "birth",
          "type": "uint256"
        },
        {
          "internalType": "string",
          "name": "discount_n",
          "type": "string"
        },
        {
          "internalType": "uint256",
          "name": "pending",
          "type": "uint256"
        },
        {
          "internalType": "address payable",
          "name": "_clientWallet",
          "type": "address"
        }
      ],
      "stateMutability": "view",
      "type": "function"
    },
    {
      "inputs": [],
      "name": "nowTime",
      "outputs": [
        {
          "internalType": "uint256",
          "name": "",
          "type": "uint256"
        }
      ],
      "stateMutability": "nonpayable",
      "type": "function"
    },
    {
      "inputs": [
        {
          "internalType": "address payable",
          "name": "_to",
          "type": "address"
        },
        {
          "internalType": "uint256",
          "name": "_price",
          "type": "uint256"
        }
      ],
      "name": "sendDeposit",
      "outputs": [],
      "stateMutability": "payable",
      "type": "function"
    },
    {
      "inputs": [
        {
          "internalType": "string",
          "name": "_cName",
          "type": "string"
        },
        {
          "internalType": "uint256",
          "name": "_cBirth",
          "type": "uint256"
        },
        {
          "internalType": "string",
          "name": "_cDiscount",
          "type": "string"
        }
      ],
      "name": "setClient",
      "outputs": [
        {
          "internalType": "bool",
          "name": "",
          "type": "bool"
        }
      ],
      "stateMutability": "nonpayable",
      "type": "function"
    },
    {
      "inputs": [
        {
          "internalType": "uint256",
          "name": "id_request",
          "type": "uint256"
        },
        {
          "components": [
            {
              "internalType": "address payable",
              "name": "provider",
              "type": "address"
            },
            {
              "internalType": "enum Shared.Type",
              "name": "insurance_type",
              "type": "uint8"
            },
            {
              "internalType": "uint256",
              "name": "price",
              "type": "uint256"
            }
          ],
          "internalType": "struct Shared.InsuranceItem",
          "name": "_prop",
          "type": "tuple"
        }
      ],
      "name": "setProposal",
      "outputs": [],
      "stateMutability": "nonpayable",
      "type": "function"
    },
    {
      "inputs": [
        {
          "internalType": "address payable[]",
          "name": "_prov",
          "type": "address[]"
        }
      ],
      "name": "setProviders",
      "outputs": [],
      "stateMutability": "nonpayable",
      "type": "function"
    },
    {
      "stateMutability": "payable",
      "type": "receive"
    }
  ],
  "bytecode": {
    "object": "0x608060405260008055670de0b6b3a76400006001556000600355600060055534801561002a57600080fd5b506115d78061003a6000396000f3fe6080604052600436106100ab5760003560e01c8063b8f97b7411610064578063b8f97b74146101b5578063c58343ef146101d5578063c7f758a814610202578063e35fd0c71461022f578063e887ccd314610242578063ee59fb991461026f57600080fd5b80631b6778d5146100e45780631b98f6ac146101065780632cd5777a14610126578063335f1b371461013957806386818cbf1461015f578063883d0cae1461018f57600080fd5b366100df57336000908152600a60205260409020546100cb903490610e07565b336000908152600a60205260409020819055005b600080fd5b3480156100f057600080fd5b506101046100ff366004610e8f565b6102d0565b005b34801561011257600080fd5b50610104610121366004610f14565b610536565b610104610134366004610fc6565b61062e565b34801561014557600080fd5b504260008190556040519081526020015b60405180910390f35b34801561016b57600080fd5b5061017f61017a3660046110aa565b61077c565b6040519015158152602001610156565b34801561019b57600080fd5b506101a4610882565b604051610156959493929190611164565b3480156101c157600080fd5b506101046101d03660046111b2565b6109be565b3480156101e157600080fd5b506101f56101f03660046111b2565b610abf565b6040516101569190611203565b34801561020e57600080fd5b5061022261021d3660046111b2565b610b63565b6040516101569190611242565b61010461023d366004611275565b610cca565b34801561024e57600080fd5b5061026261025d3660046112a1565b610d6c565b60405161015691906112c5565b34801561027b57600080fd5b506102c061028a3660046111b2565b6006602052600090815260409020805460018201546002909201546001600160a01b03821692600160a01b90920460ff16919084565b6040516101569493929190611309565b42600081815583815260066020526040902060020154116103385760405162461bcd60e51b815260206004820152601a60248201527f74656d706f207363616475746f207065722070726f706f73746500000000000060448201526064015b60405180910390fd5b6000828152600760205260409020600101541580156103b55750604080820151600084815260066020529190912060010154108015906103b5575080602001516002811115610389576103896111cb565b600083815260066020526040902054600160a01b900460ff1660028111156103b3576103b36111cb565b145b1561042c576000828152600760209081526040909120825181546001600160a01b031981166001600160a01b039092169182178355928401518493909183916001600160a81b03191617600160a01b836002811115610416576104166111cb565b0217905550604082015181600101559050505050565b604080820151600084815260076020529190912060010154116104915760405162461bcd60e51b815260206004820152601f60248201527f70726573656e74652061737369637572617a696f6e65206d69676c696f726500604482015260640161032f565b806020015160028111156104a7576104a76111cb565b600083815260076020526040902054600160a01b900460ff1660028111156104d1576104d16111cb565b03610532576000828152600760209081526040909120825181546001600160a01b031981166001600160a01b039092169182178355928401518493909183916001600160a81b03191617600160a01b836002811115610416576104166111cb565b5050565b6003546000036105ae57805160035560005b6003548110156105325781818151811061056457610564611338565b60209081029190910181015160008381526002909252604090912080546001600160a01b0319166001600160a01b03909216919091179055806105a68161134e565b915050610548565b60035481516105bd9082610e07565b600355805b600354811015610628578281815181106105de576105de611338565b60209081029190910181015160008381526002909252604090912080546001600160a01b0319166001600160a01b03909216919091179055806106208161134e565b9150506105c2565b50505b50565b604080820151336000908152600a6020529190912054101561068a5760405162461bcd60e51b81526020600482015260156024820152741b9bdd08195b9bdd59da08195d1a195c881cd95b9d605a1b604482015260640161032f565b336000818152600960205260409020600301546106a8906001610e07565b6001600160a01b038083166000908152600960209081526040808320600301949094556005548252600681529290208451815492166001600160a01b03198316811782559285015185939192909183916001600160a81b03191617600160a01b83600281111561071a5761071a6111cb565b0217905550604082015181600101556060820151816002015590505060055460016107459190610e07565b60058190556001600160a01b0390911660009081526008602090815260408083206009835281842060030154845290915290205550565b6040805160a0810182528481526020810184905290810182905260006060820181905233608083018190529091829190600b806107b989826113ef565b5060208201516001820155604082015160028201906107d890826113ef565b5060608201516003820155608090910151600490910180546001600160a01b0319166001600160a01b0392831617905581166000908152600960205260409020600b908061082683826114af565b50600182015481600101556002820181600201908161084591906114af565b5060038281015490820155600491820154910180546001600160a01b0319166001600160a01b039092169190911790555060019150509392505050565b600b8054819061089190611367565b80601f01602080910402602001604051908101604052809291908181526020018280546108bd90611367565b801561090a5780601f106108df5761010080835404028352916020019161090a565b820191906000526020600020905b8154815290600101906020018083116108ed57829003601f168201915b50505050509080600101549080600201805461092590611367565b80601f016020809104026020016040519081016040528092919081815260200182805461095190611367565b801561099e5780601f106109735761010080835404028352916020019161099e565b820191906000526020600020905b81548152906001019060200180831161098157829003601f168201915b5050505060038301546004909301549192916001600160a01b0316905085565b426000818155828152600660205260409020600201541115610a365760405162461bcd60e51b815260206004820152602b60248201527f6e6f6e2070756f6920616e636f726120636f6d70726172652c2074656d706f2060448201526a6e6f6e207363616475746f60a81b606482015260840161032f565b60008181526007602052604090208054600190910154610a5f916001600160a01b031690610cca565b60008181526006602081815260408084208054600784529185206001908101549490935291909101546001600160a01b0390911691610a9d9161158a565b9150610aa98183610cca565b5050600090815260076020526040812060010155565b610aeb604080516080810190915260008082526020820190815260200160008152602001600081525090565b60008281526006602090815260409182902082516080810190935280546001600160a01b03811684529091830190600160a01b900460ff166002811115610b3457610b346111cb565b6002811115610b4557610b456111cb565b81526001820154602082015260029091015460409091015292915050565b604080516060810182526000808252602082018190529181019190915260008281526007602052604090206001015415610bdf5760405162461bcd60e51b815260206004820152601b60248201527f65666665747475617265207072696d61206c27616371756973746f0000000000604482015260640161032f565b6000828152600660205260409020546001600160a01b03163314610c5b5760405162461bcd60e51b815260206004820152602d60248201527f736f6c6f20696c20636c69656e7465207269636869656465206c61207375612060448201526c61737369637572617a696f6e6560981b606482015260840161032f565b60008281526007602090815260409182902082516060810190935280546001600160a01b03811684529091830190600160a01b900460ff166002811115610ca457610ca46111cb565b6002811115610cb557610cb56111cb565b81526020016001820154815250509050919050565b600080836001600160a01b03168360405160006040518083038185875af1925050503d8060008114610d18576040519150601f19603f3d011682016040523d82523d6000602084013e610d1d565b606091505b509150915081610d665760405162461bcd60e51b81526020600482015260146024820152732330b4b632b2103a379039b2b7321022ba3432b960611b604482015260640161032f565b50505050565b60608060005b6001600160a01b038416600090815260096020526040902060030154811015610dea576001600160a01b03841660009081526008602090815260408083208484529091529020548251839083908110610dcd57610dcd611338565b602090810291909101015280610de28161134e565b915050610d72565b5092915050565b634e487b7160e01b600052601160045260246000fd5b60008219821115610e1a57610e1a610df1565b500190565b634e487b7160e01b600052604160045260246000fd5b604051601f8201601f1916810167ffffffffffffffff81118282101715610e5e57610e5e610e1f565b604052919050565b6001600160a01b038116811461062b57600080fd5b803560038110610e8a57600080fd5b919050565b6000808284036080811215610ea357600080fd5b833592506060601f1982011215610eb957600080fd5b506040516060810181811067ffffffffffffffff82111715610edd57610edd610e1f565b6040526020840135610eee81610e66565b8152610efc60408501610e7b565b60208201526060939093013560408401525092909150565b60006020808385031215610f2757600080fd5b823567ffffffffffffffff80821115610f3f57600080fd5b818501915085601f830112610f5357600080fd5b813581811115610f6557610f65610e1f565b8060051b9150610f76848301610e35565b8181529183018401918481019088841115610f9057600080fd5b938501935b83851015610fba5784359250610faa83610e66565b8282529385019390850190610f95565b98975050505050505050565b600060808284031215610fd857600080fd5b6040516080810181811067ffffffffffffffff82111715610ffb57610ffb610e1f565b604052823561100981610e66565b815261101760208401610e7b565b602082015260408301356040820152606083013560608201528091505092915050565b600082601f83011261104b57600080fd5b813567ffffffffffffffff81111561106557611065610e1f565b611078601f8201601f1916602001610e35565b81815284602083860101111561108d57600080fd5b816020850160208301376000918101602001919091529392505050565b6000806000606084860312156110bf57600080fd5b833567ffffffffffffffff808211156110d757600080fd5b6110e38783880161103a565b945060208601359350604086013591508082111561110057600080fd5b5061110d8682870161103a565b9150509250925092565b6000815180845260005b8181101561113d57602081850181015186830182015201611121565b8181111561114f576000602083870101525b50601f01601f19169290920160200192915050565b60a08152600061117760a0830188611117565b866020840152828103604084015261118f8187611117565b606084019590955250506001600160a01b03919091166080909101529392505050565b6000602082840312156111c457600080fd5b5035919050565b634e487b7160e01b600052602160045260246000fd5b600381106111ff57634e487b7160e01b600052602160045260246000fd5b9052565b81516001600160a01b031681526020808301516080830191611227908401826111e1565b50604083015160408301526060830151606083015292915050565b81516001600160a01b031681526020808301516060830191611266908401826111e1565b50604092830151919092015290565b6000806040838503121561128857600080fd5b823561129381610e66565b946020939093013593505050565b6000602082840312156112b357600080fd5b81356112be81610e66565b9392505050565b6020808252825182820181905260009190848201906040850190845b818110156112fd578351835292840192918401916001016112e1565b50909695505050505050565b6001600160a01b03851681526080810161132660208301866111e1565b60408201939093526060015292915050565b634e487b7160e01b600052603260045260246000fd5b60006001820161136057611360610df1565b5060010190565b600181811c9082168061137b57607f821691505b60208210810361139b57634e487b7160e01b600052602260045260246000fd5b50919050565b601f82111561062857600081815260208120601f850160051c810160208610156113c85750805b601f850160051c820191505b818110156113e7578281556001016113d4565b505050505050565b815167ffffffffffffffff81111561140957611409610e1f565b61141d816114178454611367565b846113a1565b602080601f831160018114611452576000841561143a5750858301515b600019600386901b1c1916600185901b1785556113e7565b600085815260208120601f198616915b8281101561148157888601518255948401946001909101908401611462565b508582101561149f5787850151600019600388901b60f8161c191681555b5050505050600190811b01905550565b8181036114ba575050565b6114c48254611367565b67ffffffffffffffff8111156114dc576114dc610e1f565b6114ea816114178454611367565b6000601f82116001811461151e57600083156115065750848201545b600019600385901b1c1916600184901b178455611583565b600085815260209020601f19841690600086815260209020845b838110156115585782860154825560019586019590910190602001611538565b50858310156115765781850154600019600388901b60f8161c191681555b50505060018360011b0184555b5050505050565b60008282101561159c5761159c610df1565b50039056fea26469706673582212209f41da318cb4713bbcfa199a2fbd0cdf7e1f652a86d1df174e625cb808be173b64736f6c634300080f0033",
    "linkReferences": {}
  },
  "methodIdentifiers": {
    "askNewInsurance((address,uint8,uint256,uint256))": "2cd5777a",
    "buyProposal(uint256)": "b8f97b74",
    "getProposal(uint256)": "c7f758a8",
    "getRequest(uint256)": "c58343ef",
    "getRequestsByClient(address)": "e887ccd3",
    "indexed_requests(uint256)": "ee59fb99",
    "newClient()": "883d0cae",
    "nowTime()": "335f1b37",
    "sendDeposit(address,uint256)": "e35fd0c7",
    "setClient(string,uint256,string)": "86818cbf",
    "setProposal(uint256,(address,uint8,uint256))": "1b6778d5",
    "setProviders(address[])": "1b98f6ac"
  },
  "id": 16
}