{
  "abi": [
    {
      "inputs": [],
      "stateMutability": "nonpayable",
      "type": "constructor"
    },
    {
      "inputs": [
        {
          "components": [
            {
              "internalType": "address payable",
              "name": "clientWallet",
              "type": "address"
            },
            {
              "internalType": "enum Shared.Type",
              "name": "t",
              "type": "uint8"
            },
            {
              "internalType": "uint256",
              "name": "maxp",
              "type": "uint256"
            },
            {
              "internalType": "uint256",
              "name": "scadenza",
              "type": "uint256"
            }
          ],
          "internalType": "struct Shared.Request",
          "name": "_newRequest",
          "type": "tuple"
        }
      ],
      "name": "askNewInsurance",
      "outputs": [],
      "stateMutability": "payable",
      "type": "function"
    },
    {
      "inputs": [
        {
          "internalType": "uint256",
          "name": "to_buy",
          "type": "uint256"
        }
      ],
      "name": "buyProposal",
      "outputs": [],
      "stateMutability": "nonpayable",
      "type": "function"
    },
    {
      "inputs": [
        {
          "internalType": "uint256",
          "name": "_idR",
          "type": "uint256"
        }
      ],
      "name": "getProposal",
      "outputs": [
        {
          "components": [
            {
              "internalType": "address payable",
              "name": "provider",
              "type": "address"
            },
            {
              "internalType": "enum Shared.Type",
              "name": "insurance_type",
              "type": "uint8"
            },
            {
              "internalType": "uint256",
              "name": "price",
              "type": "uint256"
            }
          ],
          "internalType": "struct Shared.InsuranceItem",
          "name": "",
          "type": "tuple"
        }
      ],
      "stateMutability": "view",
      "type": "function"
    },
    {
      "inputs": [
        {
          "internalType": "uint256",
          "name": "_idR",
          "type": "uint256"
        }
      ],
      "name": "getRequest",
      "outputs": [
        {
          "components": [
            {
              "internalType": "address payable",
              "name": "clientWallet",
              "type": "address"
            },
            {
              "internalType": "enum Shared.Type",
              "name": "t",
              "type": "uint8"
            },
            {
              "internalType": "uint256",
              "name": "maxp",
              "type": "uint256"
            },
            {
              "internalType": "uint256",
              "name": "scadenza",
              "type": "uint256"
            }
          ],
          "internalType": "struct Shared.Request",
          "name": "",
          "type": "tuple"
        }
      ],
      "stateMutability": "view",
      "type": "function"
    },
    {
      "inputs": [
        {
          "internalType": "address",
          "name": "_client",
          "type": "address"
        }
      ],
      "name": "getRequestsIDByClient",
      "outputs": [
        {
          "internalType": "uint256[]",
          "name": "",
          "type": "uint256[]"
        }
      ],
      "stateMutability": "view",
      "type": "function"
    },
    {
      "inputs": [
        {
          "internalType": "uint256",
          "name": "",
          "type": "uint256"
        }
      ],
      "name": "indexed_requests",
      "outputs": [
        {
          "internalType": "address payable",
          "name": "clientWallet",
          "type": "address"
        },
        {
          "internalType": "enum Shared.Type",
          "name": "t",
          "type": "uint8"
        },
        {
          "internalType": "uint256",
          "name": "maxp",
          "type": "uint256"
        },
        {
          "internalType": "uint256",
          "name": "scadenza",
          "type": "uint256"
        }
      ],
      "stateMutability": "view",
      "type": "function"
    },
    {
      "inputs": [],
      "name": "newClient",
      "outputs": [
        {
          "internalType": "string",
          "name": "name",
          "type": "string"
        },
        {
          "internalType": "uint256",
          "name": "birth",
          "type": "uint256"
        },
        {
          "internalType": "string",
          "name": "discount_n",
          "type": "string"
        },
        {
          "internalType": "uint256",
          "name": "pending",
          "type": "uint256"
        },
        {
          "internalType": "address payable",
          "name": "_clientWallet",
          "type": "address"
        }
      ],
      "stateMutability": "view",
      "type": "function"
    },
    {
      "inputs": [],
      "name": "nowTime",
      "outputs": [
        {
          "internalType": "uint256",
          "name": "",
          "type": "uint256"
        }
      ],
      "stateMutability": "nonpayable",
      "type": "function"
    },
    {
      "inputs": [
        {
          "internalType": "address payable",
          "name": "_to",
          "type": "address"
        },
        {
          "internalType": "uint256",
          "name": "_price",
          "type": "uint256"
        }
      ],
      "name": "sendDeposit",
      "outputs": [],
      "stateMutability": "payable",
      "type": "function"
    },
    {
      "inputs": [
        {
          "internalType": "string",
          "name": "_cName",
          "type": "string"
        },
        {
          "internalType": "uint256",
          "name": "_cBirth",
          "type": "uint256"
        },
        {
          "internalType": "string",
          "name": "_cDiscount",
          "type": "string"
        }
      ],
      "name": "setClient",
      "outputs": [
        {
          "internalType": "bool",
          "name": "",
          "type": "bool"
        }
      ],
      "stateMutability": "nonpayable",
      "type": "function"
    },
    {
      "inputs": [
        {
          "internalType": "uint256",
          "name": "id_request",
          "type": "uint256"
        },
        {
          "components": [
            {
              "internalType": "address payable",
              "name": "provider",
              "type": "address"
            },
            {
              "internalType": "enum Shared.Type",
              "name": "insurance_type",
              "type": "uint8"
            },
            {
              "internalType": "uint256",
              "name": "price",
              "type": "uint256"
            }
          ],
          "internalType": "struct Shared.InsuranceItem",
          "name": "_prop",
          "type": "tuple"
        }
      ],
      "name": "setProposal",
      "outputs": [],
      "stateMutability": "nonpayable",
      "type": "function"
    },
    {
      "stateMutability": "payable",
      "type": "receive"
    }
  ],
  "bytecode": {
    "object": "0x608060405260008055670de0b6b3a7640000600155600060025534801561002557600080fd5b5061161f806100356000396000f3fe6080604052600436106100a05760003560e01c8063883d0cae11610064578063883d0cae14610195578063b8f97b74146101bb578063c58343ef146101db578063c7f758a814610208578063e35fd0c714610235578063ee59fb991461024857600080fd5b80631b6778d5146100d9578063275c41fd146100fb5780632cd5777a14610131578063335f1b371461014457806386818cbf1461016557600080fd5b366100d457336000908152600760205260409020546100c0903490610ed0565b336000908152600760205260409020819055005b600080fd5b3480156100e557600080fd5b506100f96100f4366004610f2a565b6102a9565b005b34801561010757600080fd5b5061011b610116366004610faf565b6105c7565b6040516101289190610fd3565b60405180910390f35b6100f961013f366004611017565b61064c565b34801561015057600080fd5b50426000819055604051908152602001610128565b34801561017157600080fd5b50610185610180366004611118565b61079f565b6040519015158152602001610128565b3480156101a157600080fd5b506101aa6108a5565b6040516101289594939291906111d2565b3480156101c757600080fd5b506100f96101d6366004611220565b6109e1565b3480156101e757600080fd5b506101fb6101f6366004611220565b610bfe565b6040516101289190611271565b34801561021457600080fd5b50610228610223366004611220565b610ca2565b60405161012891906112b0565b6100f96102433660046112e3565b610e18565b34801561025457600080fd5b50610299610263366004611220565b6003602052600090815260409020805460018201546002909201546001600160a01b03821692600160a01b90920460ff16919084565b604051610128949392919061130f565b42600081815583815260036020526040902060020154116103115760405162461bcd60e51b815260206004820152601a60248201527f74656d706f207363616475746f207065722070726f706f73746500000000000060448201526064015b60405180910390fd5b60008281526004602052604090206001015415801561038e57506040808201516000848152600360205291909120600101541080159061038e57508060200151600281111561036257610362611239565b600083815260036020526040902054600160a01b900460ff16600281111561038c5761038c611239565b145b15610405576000828152600460209081526040909120825181546001600160a01b031981166001600160a01b039092169182178355928401518493909183916001600160a81b03191617600160a01b8360028111156103ef576103ef611239565b0217905550604082015181600101559050505050565b8060200151600281111561041b5761041b611239565b600083815260046020526040902054600160a01b900460ff16600281111561044557610445611239565b1461048b5760405162461bcd60e51b81526020600482015260166024820152757469706f6c6f676961206e6f6e20616465677561746160501b6044820152606401610308565b60008281526004602052604090819020600101549082015111156104f15760405162461bcd60e51b815260206004820152601f60248201527f70726573656e74652061737369637572617a696f6e65206d69676c696f7265006044820152606401610308565b6040808201516000848152600460205291909120600101540361056b5760405162461bcd60e51b815260206004820152602c60248201527f70726f706f73746120756775616c652061207175656c6c612070726573656e7460448201526b65206d61207461726469766160a01b6064820152608401610308565b6000828152600460209081526040909120825181546001600160a01b031981166001600160a01b039092169182178355928401518493909183916001600160a81b03191617600160a01b8360028111156103ef576103ef611239565b60608060005b6001600160a01b038416600090815260066020526040902060030154811015610645576001600160a01b038416600090815260056020908152604080832084845290915290205482518390839081106106285761062861133e565b60209081029190910101528061063d81611354565b9150506105cd565b5092915050565b6040808201513360009081526007602052919091205410156106a85760405162461bcd60e51b81526020600482015260156024820152741b9bdd08195b9bdd59da08195d1a195c881cd95b9d605a1b6044820152606401610308565b336000818152600660205260409020600301546106c6906001610ed0565b6001600160a01b0380831660009081526006602090815260408083206003908101959095556002805484529482529091208551815493166001600160a01b03198416811782559186015186949193909284926001600160a81b03199092161790600160a01b90849081111561073d5761073d611239565b0217905550604082015181600101556060820151816002015590505060025460016107689190610ed0565b60028190556001600160a01b0390911660009081526005602090815260408083206006835281842060030154845290915290205550565b6040805160a08101825284815260208101849052908101829052600060608201819052336080830181905290918291906008806107dc89826113f6565b5060208201516001820155604082015160028201906107fb90826113f6565b5060608201516003820155608090910151600490910180546001600160a01b0319166001600160a01b03928316179055811660009081526006602052604090206008908061084983826114b6565b50600182015481600101556002820181600201908161086891906114b6565b5060038281015490820155600491820154910180546001600160a01b0319166001600160a01b039092169190911790555060019150509392505050565b6008805481906108b49061136d565b80601f01602080910402602001604051908101604052809291908181526020018280546108e09061136d565b801561092d5780601f106109025761010080835404028352916020019161092d565b820191906000526020600020905b81548152906001019060200180831161091057829003601f168201915b5050505050908060010154908060020180546109489061136d565b80601f01602080910402602001604051908101604052809291908181526020018280546109749061136d565b80156109c15780601f10610996576101008083540402835291602001916109c1565b820191906000526020600020905b8154815290600101906020018083116109a457829003601f168201915b5050505060038301546004909301549192916001600160a01b0316905085565b426000818155828152600360205260409020600201541115610a595760405162461bcd60e51b815260206004820152602b60248201527f6e6f6e2070756f6920616e636f726120636f6d70726172652c2074656d706f2060448201526a6e6f6e207363616475746f60a81b6064820152608401610308565b600081815260046020908152604080832060019081015460039093529083200154610a849190611591565b6000838152600360205260409020549091506001600160a01b03163314801590610ac557506000828152600460205260409020546001600160a01b03163314155b15610b9d576000610ad76064836115a8565b610ae29060016115ca565b600084815260046020526040902060010154610b00906064906115a8565b610b0b9060016115ca565b610b159190610ed0565b600084815260046020526040902060010154909150610b36906064906115a8565b610b419060016115ca565b600084815260046020526040902060010154610b5d9190611591565b600084815260046020526040902060010155610b7a6064836115a8565b610b859060016115ca565b610b8f9083611591565b9150610b9b3382610e18565b505b60008281526004602052604090208054600190910154610bc6916001600160a01b031690610e18565b6000828152600360205260409020546001600160a01b0316610be88183610e18565b5050600090815260046020526040812060010155565b610c2a604080516080810190915260008082526020820190815260200160008152602001600081525090565b60008281526003602090815260409182902082516080810190935280546001600160a01b03811684529091830190600160a01b900460ff166002811115610c7357610c73611239565b6002811115610c8457610c84611239565b81526001820154602082015260029091015460409091015292915050565b604080516060810182526000808252602082018190529181019190915260008281526004602052604090206001015415610d2d5760405162461bcd60e51b815260206004820152602660248201527f636869616d617265207072696d61206c612066756e7a696f6e6520646920616360448201526571756973746f60d01b6064820152608401610308565b6000828152600360205260409020546001600160a01b03163314610da95760405162461bcd60e51b815260206004820152602d60248201527f736f6c6f20696c20636c69656e7465207269636869656465206c61207375612060448201526c61737369637572617a696f6e6560981b6064820152608401610308565b60008281526004602090815260409182902082516060810190935280546001600160a01b03811684529091830190600160a01b900460ff166002811115610df257610df2611239565b6002811115610e0357610e03611239565b81526020016001820154815250509050919050565b600080836001600160a01b03168360405160006040518083038185875af1925050503d8060008114610e66576040519150601f19603f3d011682016040523d82523d6000602084013e610e6b565b606091505b509150915081610eb45760405162461bcd60e51b81526020600482015260146024820152732330b4b632b2103a379039b2b7321022ba3432b960611b6044820152606401610308565b50505050565b634e487b7160e01b600052601160045260246000fd5b60008219821115610ee357610ee3610eba565b500190565b634e487b7160e01b600052604160045260246000fd5b6001600160a01b0381168114610f1357600080fd5b50565b803560038110610f2557600080fd5b919050565b6000808284036080811215610f3e57600080fd5b833592506060601f1982011215610f5457600080fd5b506040516060810181811067ffffffffffffffff82111715610f7857610f78610ee8565b6040526020840135610f8981610efe565b8152610f9760408501610f16565b60208201526060939093013560408401525092909150565b600060208284031215610fc157600080fd5b8135610fcc81610efe565b9392505050565b6020808252825182820181905260009190848201906040850190845b8181101561100b57835183529284019291840191600101610fef565b50909695505050505050565b60006080828403121561102957600080fd5b6040516080810181811067ffffffffffffffff8211171561104c5761104c610ee8565b604052823561105a81610efe565b815261106860208401610f16565b602082015260408301356040820152606083013560608201528091505092915050565b600082601f83011261109c57600080fd5b813567ffffffffffffffff808211156110b7576110b7610ee8565b604051601f8301601f19908116603f011681019082821181831017156110df576110df610ee8565b816040528381528660208588010111156110f857600080fd5b836020870160208301376000602085830101528094505050505092915050565b60008060006060848603121561112d57600080fd5b833567ffffffffffffffff8082111561114557600080fd5b6111518783880161108b565b945060208601359350604086013591508082111561116e57600080fd5b5061117b8682870161108b565b9150509250925092565b6000815180845260005b818110156111ab5760208185018101518683018201520161118f565b818111156111bd576000602083870101525b50601f01601f19169290920160200192915050565b60a0815260006111e560a0830188611185565b86602084015282810360408401526111fd8187611185565b606084019590955250506001600160a01b03919091166080909101529392505050565b60006020828403121561123257600080fd5b5035919050565b634e487b7160e01b600052602160045260246000fd5b6003811061126d57634e487b7160e01b600052602160045260246000fd5b9052565b81516001600160a01b0316815260208083015160808301916112959084018261124f565b50604083015160408301526060830151606083015292915050565b81516001600160a01b0316815260208083015160608301916112d49084018261124f565b50604092830151919092015290565b600080604083850312156112f657600080fd5b823561130181610efe565b946020939093013593505050565b6001600160a01b03851681526080810161132c602083018661124f565b60408201939093526060015292915050565b634e487b7160e01b600052603260045260246000fd5b60006001820161136657611366610eba565b5060010190565b600181811c9082168061138157607f821691505b6020821081036113a157634e487b7160e01b600052602260045260246000fd5b50919050565b601f8211156113f157600081815260208120601f850160051c810160208610156113ce5750805b601f850160051c820191505b818110156113ed578281556001016113da565b5050505b505050565b815167ffffffffffffffff81111561141057611410610ee8565b6114248161141e845461136d565b846113a7565b602080601f83116001811461145957600084156114415750858301515b600019600386901b1c1916600185901b1785556113ed565b600085815260208120601f198616915b8281101561148857888601518255948401946001909101908401611469565b50858210156114a65787850151600019600388901b60f8161c191681555b5050505050600190811b01905550565b8181036114c1575050565b6114cb825461136d565b67ffffffffffffffff8111156114e3576114e3610ee8565b6114f18161141e845461136d565b6000601f821160018114611525576000831561150d5750848201545b600019600385901b1c1916600184901b17845561158a565b600085815260209020601f19841690600086815260209020845b8381101561155f578286015482556001958601959091019060200161153f565b508583101561157d5781850154600019600388901b60f8161c191681555b50505060018360011b0184555b5050505050565b6000828210156115a3576115a3610eba565b500390565b6000826115c557634e487b7160e01b600052601260045260246000fd5b500490565b60008160001904831182151516156115e4576115e4610eba565b50029056fea26469706673582212204bc3a4b2bbd37fda74b17e68ff4cf55e834575da48f16d4b2a53eb979077970464736f6c634300080f0033",
    "linkReferences": {}
  },
  "methodIdentifiers": {
    "askNewInsurance((address,uint8,uint256,uint256))": "2cd5777a",
    "buyProposal(uint256)": "b8f97b74",
    "getProposal(uint256)": "c7f758a8",
    "getRequest(uint256)": "c58343ef",
    "getRequestsIDByClient(address)": "275c41fd",
    "indexed_requests(uint256)": "ee59fb99",
    "newClient()": "883d0cae",
    "nowTime()": "335f1b37",
    "sendDeposit(address,uint256)": "e35fd0c7",
    "setClient(string,uint256,string)": "86818cbf",
    "setProposal(uint256,(address,uint8,uint256))": "1b6778d5"
  },
  "id": 16
}