{
  "abi": [
    {
      "inputs": [],
      "stateMutability": "nonpayable",
      "type": "constructor"
    },
    {
      "inputs": [
        {
          "components": [
            {
              "internalType": "address payable",
              "name": "clientWallet",
              "type": "address"
            },
            {
              "internalType": "enum Shared.Type",
              "name": "t",
              "type": "uint8"
            },
            {
              "internalType": "uint256",
              "name": "maxp",
              "type": "uint256"
            },
            {
              "internalType": "uint256",
              "name": "scadenza",
              "type": "uint256"
            }
          ],
          "internalType": "struct Shared.Request",
          "name": "_newRequest",
          "type": "tuple"
        }
      ],
      "name": "askNewInsurance",
      "outputs": [],
      "stateMutability": "payable",
      "type": "function"
    },
    {
      "inputs": [
        {
          "internalType": "uint256",
          "name": "to_buy",
          "type": "uint256"
        }
      ],
      "name": "buyProposal",
      "outputs": [
        {
          "components": [
            {
              "internalType": "address payable",
              "name": "provider",
              "type": "address"
            },
            {
              "internalType": "enum Shared.Type",
              "name": "insurance_type",
              "type": "uint8"
            },
            {
              "internalType": "uint256",
              "name": "price",
              "type": "uint256"
            }
          ],
          "internalType": "struct Shared.InsuranceItem",
          "name": "",
          "type": "tuple"
        }
      ],
      "stateMutability": "nonpayable",
      "type": "function"
    },
    {
      "inputs": [
        {
          "internalType": "uint256",
          "name": "_idR",
          "type": "uint256"
        }
      ],
      "name": "getRequest",
      "outputs": [
        {
          "components": [
            {
              "internalType": "address payable",
              "name": "clientWallet",
              "type": "address"
            },
            {
              "internalType": "enum Shared.Type",
              "name": "t",
              "type": "uint8"
            },
            {
              "internalType": "uint256",
              "name": "maxp",
              "type": "uint256"
            },
            {
              "internalType": "uint256",
              "name": "scadenza",
              "type": "uint256"
            }
          ],
          "internalType": "struct Shared.Request",
          "name": "",
          "type": "tuple"
        }
      ],
      "stateMutability": "view",
      "type": "function"
    },
    {
      "inputs": [
        {
          "internalType": "address",
          "name": "_client",
          "type": "address"
        }
      ],
      "name": "getRequestsByClient",
      "outputs": [
        {
          "internalType": "uint256[]",
          "name": "",
          "type": "uint256[]"
        }
      ],
      "stateMutability": "view",
      "type": "function"
    },
    {
      "inputs": [
        {
          "internalType": "uint256",
          "name": "",
          "type": "uint256"
        }
      ],
      "name": "indexed_requests",
      "outputs": [
        {
          "internalType": "address payable",
          "name": "clientWallet",
          "type": "address"
        },
        {
          "internalType": "enum Shared.Type",
          "name": "t",
          "type": "uint8"
        },
        {
          "internalType": "uint256",
          "name": "maxp",
          "type": "uint256"
        },
        {
          "internalType": "uint256",
          "name": "scadenza",
          "type": "uint256"
        }
      ],
      "stateMutability": "view",
      "type": "function"
    },
    {
      "inputs": [],
      "name": "newClient",
      "outputs": [
        {
          "internalType": "string",
          "name": "name",
          "type": "string"
        },
        {
          "internalType": "uint256",
          "name": "birth",
          "type": "uint256"
        },
        {
          "internalType": "string",
          "name": "discount_n",
          "type": "string"
        },
        {
          "internalType": "uint256",
          "name": "pending",
          "type": "uint256"
        },
        {
          "internalType": "address payable",
          "name": "_clientWallet",
          "type": "address"
        }
      ],
      "stateMutability": "view",
      "type": "function"
    },
    {
      "inputs": [],
      "name": "nowTime",
      "outputs": [
        {
          "internalType": "uint256",
          "name": "",
          "type": "uint256"
        }
      ],
      "stateMutability": "nonpayable",
      "type": "function"
    },
    {
      "inputs": [
        {
          "internalType": "address payable",
          "name": "_to",
          "type": "address"
        },
        {
          "internalType": "uint256",
          "name": "_price",
          "type": "uint256"
        }
      ],
      "name": "sendDeposit",
      "outputs": [],
      "stateMutability": "payable",
      "type": "function"
    },
    {
      "inputs": [
        {
          "internalType": "string",
          "name": "_cName",
          "type": "string"
        },
        {
          "internalType": "uint256",
          "name": "_cBirth",
          "type": "uint256"
        },
        {
          "internalType": "string",
          "name": "_cDiscount",
          "type": "string"
        }
      ],
      "name": "setClient",
      "outputs": [
        {
          "internalType": "bool",
          "name": "",
          "type": "bool"
        }
      ],
      "stateMutability": "nonpayable",
      "type": "function"
    },
    {
      "inputs": [
        {
          "internalType": "uint256",
          "name": "id_request",
          "type": "uint256"
        },
        {
          "components": [
            {
              "internalType": "address payable",
              "name": "provider",
              "type": "address"
            },
            {
              "internalType": "enum Shared.Type",
              "name": "insurance_type",
              "type": "uint8"
            },
            {
              "internalType": "uint256",
              "name": "price",
              "type": "uint256"
            }
          ],
          "internalType": "struct Shared.InsuranceItem",
          "name": "_prop",
          "type": "tuple"
        }
      ],
      "name": "setProposal",
      "outputs": [],
      "stateMutability": "nonpayable",
      "type": "function"
    },
    {
      "inputs": [
        {
          "internalType": "address payable[]",
          "name": "_prov",
          "type": "address[]"
        }
      ],
      "name": "setProviders",
      "outputs": [],
      "stateMutability": "nonpayable",
      "type": "function"
    },
    {
      "stateMutability": "payable",
      "type": "receive"
    }
  ],
  "bytecode": {
    "object": "0x608060405260008055670de0b6b3a76400006001556000600355600060055534801561002a57600080fd5b5061144c8061003a6000396000f3fe6080604052600436106100a05760003560e01c8063883d0cae11610064578063883d0cae14610184578063b8f97b74146101aa578063c58343ef146101d7578063e35fd0c714610204578063e887ccd314610217578063ee59fb991461024457600080fd5b80631b6778d5146100d95780631b98f6ac146100fb5780632cd5777a1461011b578063335f1b371461012e57806386818cbf1461015457600080fd5b366100d457336000908152600a60205260409020546100c0903490610c7c565b336000908152600a60205260409020819055005b600080fd5b3480156100e557600080fd5b506100f96100f4366004610d04565b6102a5565b005b34801561010757600080fd5b506100f9610116366004610d89565b6104f2565b6100f9610129366004610e3b565b6105ea565b34801561013a57600080fd5b504260008190556040519081526020015b60405180910390f35b34801561016057600080fd5b5061017461016f366004610f1f565b610738565b604051901515815260200161014b565b34801561019057600080fd5b5061019961083e565b60405161014b959493929190610fd9565b3480156101b657600080fd5b506101ca6101c5366004611027565b61097a565b60405161014b9190611078565b3480156101e357600080fd5b506101f76101f2366004611027565b610a9b565b60405161014b91906110ab565b6100f96102123660046110ea565b610b3f565b34801561022357600080fd5b50610237610232366004611116565b610be1565b60405161014b919061113a565b34801561025057600080fd5b5061029561025f366004611027565b6006602052600090815260409020805460018201546002909201546001600160a01b03821692600160a01b90920460ff16919084565b60405161014b949392919061117e565b426000818155838152600660205260409020600201541161030d5760405162461bcd60e51b815260206004820152601a60248201527f74656d706f207363616475746f207065722070726f706f73746500000000000060448201526064015b60405180910390fd5b6040808201516000848152600660205291909120600101541080159061037157508060200151600281111561034457610344611040565b600083815260066020526040902054600160a01b900460ff16600281111561036e5761036e611040565b10155b156103e8576000828152600760209081526040909120825181546001600160a01b031981166001600160a01b039092169182178355928401518493909183916001600160a81b03191617600160a01b8360028111156103d2576103d2611040565b0217905550604082015181600101559050505050565b6040808201516000848152600760205291909120600101541161044d5760405162461bcd60e51b815260206004820152601f60248201527f70726573656e74652061737369637572617a696f6e65206d69676c696f7265006044820152606401610304565b8060200151600281111561046357610463611040565b600083815260076020526040902054600160a01b900460ff16600281111561048d5761048d611040565b036104ee576000828152600760209081526040909120825181546001600160a01b031981166001600160a01b039092169182178355928401518493909183916001600160a81b03191617600160a01b8360028111156103d2576103d2611040565b5050565b60035460000361056a57805160035560005b6003548110156104ee57818181518110610520576105206111ad565b60209081029190910181015160008381526002909252604090912080546001600160a01b0319166001600160a01b0390921691909117905580610562816111c3565b915050610504565b60035481516105799082610c7c565b600355805b6003548110156105e45782818151811061059a5761059a6111ad565b60209081029190910181015160008381526002909252604090912080546001600160a01b0319166001600160a01b03909216919091179055806105dc816111c3565b91505061057e565b50505b50565b604080820151336000908152600a602052919091205410156106465760405162461bcd60e51b81526020600482015260156024820152741b9bdd08195b9bdd59da08195d1a195c881cd95b9d605a1b6044820152606401610304565b33600081815260096020526040902060030154610664906001610c7c565b6001600160a01b038083166000908152600960209081526040808320600301949094556005548252600681529290208451815492166001600160a01b03198316811782559285015185939192909183916001600160a81b03191617600160a01b8360028111156106d6576106d6611040565b0217905550604082015181600101556060820151816002015590505060055460016107019190610c7c565b60058190556001600160a01b0390911660009081526008602090815260408083206009835281842060030154845290915290205550565b6040805160a0810182528481526020810184905290810182905260006060820181905233608083018190529091829190600b806107758982611264565b5060208201516001820155604082015160028201906107949082611264565b5060608201516003820155608090910151600490910180546001600160a01b0319166001600160a01b0392831617905581166000908152600960205260409020600b90806107e28382611324565b5060018201548160010155600282018160020190816108019190611324565b5060038281015490820155600491820154910180546001600160a01b0319166001600160a01b039092169190911790555060019150509392505050565b600b8054819061084d906111dc565b80601f0160208091040260200160405190810160405280929190818152602001828054610879906111dc565b80156108c65780601f1061089b576101008083540402835291602001916108c6565b820191906000526020600020905b8154815290600101906020018083116108a957829003601f168201915b5050505050908060010154908060020180546108e1906111dc565b80601f016020809104026020016040519081016040528092919081815260200182805461090d906111dc565b801561095a5780601f1061092f5761010080835404028352916020019161095a565b820191906000526020600020905b81548152906001019060200180831161093d57829003601f168201915b5050505060038301546004909301549192916001600160a01b0316905085565b604080516060810182526000808252602082018190529181019190915242600081815583815260066020526040902060020154106109b757600080fd5b600082815260076020526040902080546001909101546109e0916001600160a01b031690610b3f565b60008281526006602081815260408084208054600784529185206001908101549490935291909101546001600160a01b0390911691610a1e916113ff565b9150610a2a8183610b3f565b60008481526007602090815260409182902082516060810190935280546001600160a01b03811684529091830190600160a01b900460ff166002811115610a7357610a73611040565b6002811115610a8457610a84611040565b815260200160018201548152505092505050919050565b610ac7604080516080810190915260008082526020820190815260200160008152602001600081525090565b60008281526006602090815260409182902082516080810190935280546001600160a01b03811684529091830190600160a01b900460ff166002811115610b1057610b10611040565b6002811115610b2157610b21611040565b81526001820154602082015260029091015460409091015292915050565b600080836001600160a01b03168360405160006040518083038185875af1925050503d8060008114610b8d576040519150601f19603f3d011682016040523d82523d6000602084013e610b92565b606091505b509150915081610bdb5760405162461bcd60e51b81526020600482015260146024820152732330b4b632b2103a379039b2b7321022ba3432b960611b6044820152606401610304565b50505050565b60608060005b6001600160a01b038416600090815260096020526040902060030154811015610c5f576001600160a01b03841660009081526008602090815260408083208484529091529020548251839083908110610c4257610c426111ad565b602090810291909101015280610c57816111c3565b915050610be7565b5092915050565b634e487b7160e01b600052601160045260246000fd5b60008219821115610c8f57610c8f610c66565b500190565b634e487b7160e01b600052604160045260246000fd5b604051601f8201601f1916810167ffffffffffffffff81118282101715610cd357610cd3610c94565b604052919050565b6001600160a01b03811681146105e757600080fd5b803560038110610cff57600080fd5b919050565b6000808284036080811215610d1857600080fd5b833592506060601f1982011215610d2e57600080fd5b506040516060810181811067ffffffffffffffff82111715610d5257610d52610c94565b6040526020840135610d6381610cdb565b8152610d7160408501610cf0565b60208201526060939093013560408401525092909150565b60006020808385031215610d9c57600080fd5b823567ffffffffffffffff80821115610db457600080fd5b818501915085601f830112610dc857600080fd5b813581811115610dda57610dda610c94565b8060051b9150610deb848301610caa565b8181529183018401918481019088841115610e0557600080fd5b938501935b83851015610e2f5784359250610e1f83610cdb565b8282529385019390850190610e0a565b98975050505050505050565b600060808284031215610e4d57600080fd5b6040516080810181811067ffffffffffffffff82111715610e7057610e70610c94565b6040528235610e7e81610cdb565b8152610e8c60208401610cf0565b602082015260408301356040820152606083013560608201528091505092915050565b600082601f830112610ec057600080fd5b813567ffffffffffffffff811115610eda57610eda610c94565b610eed601f8201601f1916602001610caa565b818152846020838601011115610f0257600080fd5b816020850160208301376000918101602001919091529392505050565b600080600060608486031215610f3457600080fd5b833567ffffffffffffffff80821115610f4c57600080fd5b610f5887838801610eaf565b9450602086013593506040860135915080821115610f7557600080fd5b50610f8286828701610eaf565b9150509250925092565b6000815180845260005b81811015610fb257602081850181015186830182015201610f96565b81811115610fc4576000602083870101525b50601f01601f19169290920160200192915050565b60a081526000610fec60a0830188610f8c565b86602084015282810360408401526110048187610f8c565b606084019590955250506001600160a01b03919091166080909101529392505050565b60006020828403121561103957600080fd5b5035919050565b634e487b7160e01b600052602160045260246000fd5b6003811061107457634e487b7160e01b600052602160045260246000fd5b9052565b81516001600160a01b03168152602080830151606083019161109c90840182611056565b50604092830151919092015290565b81516001600160a01b0316815260208083015160808301916110cf90840182611056565b50604083015160408301526060830151606083015292915050565b600080604083850312156110fd57600080fd5b823561110881610cdb565b946020939093013593505050565b60006020828403121561112857600080fd5b813561113381610cdb565b9392505050565b6020808252825182820181905260009190848201906040850190845b8181101561117257835183529284019291840191600101611156565b50909695505050505050565b6001600160a01b03851681526080810161119b6020830186611056565b60408201939093526060015292915050565b634e487b7160e01b600052603260045260246000fd5b6000600182016111d5576111d5610c66565b5060010190565b600181811c908216806111f057607f821691505b60208210810361121057634e487b7160e01b600052602260045260246000fd5b50919050565b601f8211156105e457600081815260208120601f850160051c8101602086101561123d5750805b601f850160051c820191505b8181101561125c57828155600101611249565b505050505050565b815167ffffffffffffffff81111561127e5761127e610c94565b6112928161128c84546111dc565b84611216565b602080601f8311600181146112c757600084156112af5750858301515b600019600386901b1c1916600185901b17855561125c565b600085815260208120601f198616915b828110156112f6578886015182559484019460019091019084016112d7565b50858210156113145787850151600019600388901b60f8161c191681555b5050505050600190811b01905550565b81810361132f575050565b61133982546111dc565b67ffffffffffffffff81111561135157611351610c94565b61135f8161128c84546111dc565b6000601f821160018114611393576000831561137b5750848201545b600019600385901b1c1916600184901b1784556113f8565b600085815260209020601f19841690600086815260209020845b838110156113cd57828601548255600195860195909101906020016113ad565b50858310156113eb5781850154600019600388901b60f8161c191681555b50505060018360011b0184555b5050505050565b60008282101561141157611411610c66565b50039056fea26469706673582212208607232db0b28e4be5532e24af52cac9ce945e8ee47b6e6163b6802a7c6b34ee64736f6c634300080f0033",
    "linkReferences": {}
  },
  "methodIdentifiers": {
    "askNewInsurance((address,uint8,uint256,uint256))": "2cd5777a",
    "buyProposal(uint256)": "b8f97b74",
    "getRequest(uint256)": "c58343ef",
    "getRequestsByClient(address)": "e887ccd3",
    "indexed_requests(uint256)": "ee59fb99",
    "newClient()": "883d0cae",
    "nowTime()": "335f1b37",
    "sendDeposit(address,uint256)": "e35fd0c7",
    "setClient(string,uint256,string)": "86818cbf",
    "setProposal(uint256,(address,uint8,uint256))": "1b6778d5",
    "setProviders(address[])": "1b98f6ac"
  },
  "id": 16
}