{
  "abi": [
    {
      "inputs": [],
      "stateMutability": "nonpayable",
      "type": "constructor"
    },
    {
      "inputs": [
        {
          "internalType": "address",
          "name": "_clientWallet",
          "type": "address"
        },
        {
          "components": [
            {
              "internalType": "address payable",
              "name": "clientWallet",
              "type": "address"
            },
            {
              "internalType": "enum Shared.Type",
              "name": "t",
              "type": "uint8"
            },
            {
              "internalType": "uint256",
              "name": "maxp",
              "type": "uint256"
            },
            {
              "internalType": "uint256",
              "name": "scadenza",
              "type": "uint256"
            }
          ],
          "internalType": "struct Shared.Request",
          "name": "_newRequest",
          "type": "tuple"
        }
      ],
      "name": "askNewInsurance",
      "outputs": [],
      "stateMutability": "payable",
      "type": "function"
    },
    {
      "inputs": [
        {
          "internalType": "uint256",
          "name": "id_Req",
          "type": "uint256"
        }
      ],
      "name": "confrontInsurances",
      "outputs": [
        {
          "components": [
            {
              "internalType": "address payable",
              "name": "provider",
              "type": "address"
            },
            {
              "internalType": "enum Shared.Type",
              "name": "insurance_type",
              "type": "uint8"
            },
            {
              "internalType": "uint256",
              "name": "price",
              "type": "uint256"
            }
          ],
          "internalType": "struct Shared.InsuranceItem",
          "name": "",
          "type": "tuple"
        }
      ],
      "stateMutability": "payable",
      "type": "function"
    },
    {
      "inputs": [
        {
          "internalType": "uint256",
          "name": "to_control",
          "type": "uint256"
        }
      ],
      "name": "getInsurance",
      "outputs": [],
      "stateMutability": "payable",
      "type": "function"
    },
    {
      "inputs": [
        {
          "internalType": "address",
          "name": "_clientWallet",
          "type": "address"
        }
      ],
      "name": "getRequests",
      "outputs": [
        {
          "components": [
            {
              "internalType": "string",
              "name": "name",
              "type": "string"
            },
            {
              "internalType": "uint256",
              "name": "birth",
              "type": "uint256"
            },
            {
              "internalType": "string",
              "name": "discount_n",
              "type": "string"
            },
            {
              "internalType": "uint256",
              "name": "pending",
              "type": "uint256"
            },
            {
              "internalType": "address payable",
              "name": "_clientWallet",
              "type": "address"
            }
          ],
          "internalType": "struct Shared.clientInfo",
          "name": "",
          "type": "tuple"
        }
      ],
      "stateMutability": "nonpayable",
      "type": "function"
    },
    {
      "inputs": [],
      "name": "newClient",
      "outputs": [
        {
          "internalType": "string",
          "name": "name",
          "type": "string"
        },
        {
          "internalType": "uint256",
          "name": "birth",
          "type": "uint256"
        },
        {
          "internalType": "string",
          "name": "discount_n",
          "type": "string"
        },
        {
          "internalType": "uint256",
          "name": "pending",
          "type": "uint256"
        },
        {
          "internalType": "address payable",
          "name": "_clientWallet",
          "type": "address"
        }
      ],
      "stateMutability": "view",
      "type": "function"
    },
    {
      "inputs": [],
      "name": "nowTime",
      "outputs": [
        {
          "internalType": "uint256",
          "name": "",
          "type": "uint256"
        }
      ],
      "stateMutability": "nonpayable",
      "type": "function"
    },
    {
      "inputs": [],
      "name": "retrieveTime",
      "outputs": [
        {
          "internalType": "uint256",
          "name": "",
          "type": "uint256"
        }
      ],
      "stateMutability": "view",
      "type": "function"
    },
    {
      "inputs": [
        {
          "internalType": "address payable",
          "name": "_to",
          "type": "address"
        },
        {
          "internalType": "uint256",
          "name": "_price",
          "type": "uint256"
        },
        {
          "components": [
            {
              "internalType": "address payable",
              "name": "provider",
              "type": "address"
            },
            {
              "internalType": "enum Shared.Type",
              "name": "insurance_type",
              "type": "uint8"
            },
            {
              "internalType": "uint256",
              "name": "price",
              "type": "uint256"
            }
          ],
          "internalType": "struct Shared.InsuranceItem",
          "name": "_bought",
          "type": "tuple"
        }
      ],
      "name": "sendChange",
      "outputs": [],
      "stateMutability": "payable",
      "type": "function"
    },
    {
      "inputs": [
        {
          "internalType": "address payable",
          "name": "_to",
          "type": "address"
        },
        {
          "internalType": "uint256",
          "name": "_price",
          "type": "uint256"
        }
      ],
      "name": "sendDeposit",
      "outputs": [],
      "stateMutability": "payable",
      "type": "function"
    },
    {
      "inputs": [
        {
          "internalType": "address payable[]",
          "name": "_prov",
          "type": "address[]"
        }
      ],
      "name": "setProviders",
      "outputs": [],
      "stateMutability": "nonpayable",
      "type": "function"
    },
    {
      "inputs": [
        {
          "internalType": "address payable",
          "name": "_clientWallet",
          "type": "address"
        },
        {
          "internalType": "string",
          "name": "_cName",
          "type": "string"
        },
        {
          "internalType": "uint256",
          "name": "_cBirth",
          "type": "uint256"
        },
        {
          "internalType": "string",
          "name": "_cDiscount",
          "type": "string"
        }
      ],
      "name": "takeClient",
      "outputs": [
        {
          "internalType": "bool",
          "name": "",
          "type": "bool"
        }
      ],
      "stateMutability": "nonpayable",
      "type": "function"
    },
    {
      "stateMutability": "payable",
      "type": "receive"
    }
  ],
  "bytecode": {
    "object": "0x608060405260008055670de0b6b3a764000060015560006003556000600a5534801561002a57600080fd5b506116528061003a6000396000f3fe6080604052600436106100a05760003560e01c8063569ebe0711610064578063569ebe07146101895780636a0eb96c1461019c578063804e44f3146101b157806385fae602146101de578063883d0cae146101f1578063e35fd0c71461021757600080fd5b806303b37ccd146100d95780631ae6fb2d146101025780631b98f6ac14610132578063335f1b37146101545780635699de081461017657600080fd5b366100d457336000908152600960205260409020546100c0903490610db1565b336000908152600960205260409020819055005b600080fd5b6100ec6100e7366004610dc9565b61022a565b6040516100f99190610e1a565b60405180910390f35b34801561010e57600080fd5b5061012261011d366004610f19565b61044d565b60405190151581526020016100f9565b34801561013e57600080fd5b5061015261014d366004610f99565b610558565b005b34801561016057600080fd5b504260008190555b6040519081526020016100f9565b610152610184366004611058565b610654565b6101526101973660046110f2565b610724565b3480156101a857600080fd5b50600054610168565b3480156101bd57600080fd5b506101d16101cc36600461118e565b610822565b6040516100f9919061120a565b6101526101ec366004610dc9565b610a2e565b3480156101fd57600080fd5b50610206610bc3565b6040516100f9959493929190611279565b6101526102253660046112c7565b610cff565b604080516060808201835260008083526020808401829052838501829052845180840186528281528082018390528086018390529180526004815284519283019094527f17ef568e3e12ab5b9c7254a8d58478811de00f9e6eb34345acd53bf8fd09d3ec80546001600160a01b0381168452939491939091830190600160a01b900460ff1660028111156102c0576102c0610de2565b60028111156102d1576102d1610de2565b81526001918201546020909101529091505b6003548110156103885760408083015160008381526004602052919091206001015410156103765760008181526004602090815260409182902082516060810190935280546001600160a01b03811684529091830190600160a01b900460ff16600281111561035457610354610de2565b600281111561036557610365610de2565b815260200160018201548152505091505b80610380816112f3565b9150506102e3565b6000848152600660209081526040909120835181546001600160a01b031981166001600160a01b039092169182178355928501518593909183916001600160a81b03191617600160a01b8360028111156103e4576103e4610de2565b02179055506040918201516001909101558251908301516104059190610cff565b6000848152600560205260408082208054918501516001909101546001600160a01b0390921691610436919061130c565b9150610443818386610654565b5091949350505050565b6040805160a081018252848152602081018490529081018290526000606082018190526001600160a01b0386166080830152908190600b8061048f88826113ab565b5060208201516001820155604082015160028201906104ae90826113ab565b5060608201516003820155608090910151600490910180546001600160a01b0319166001600160a01b0392831617905586166000908152600860205260409020600b90806104fc838261146b565b50600182015481600101556002820181600201908161051b919061146b565b5060038281015490820155600491820154910180546001600160a01b0319166001600160a01b039092169190911790555060019050949350505050565b6003546000036105d457805160035560005b6003548110156105d0578181815181106105865761058661153e565b60209081029190910181015160008381526002909252604090912080546001600160a01b0319166001600160a01b03909216919091179055806105c8816112f3565b91505061056a565b5050565b60035481516105e39082610db1565b600355805b60035481101561064e578281815181106106045761060461153e565b60209081029190910181015160008381526002909252604090912080546001600160a01b0319166001600160a01b0390921691909117905580610646816112f3565b9150506105e8565b50505b50565b600080846001600160a01b031684846040516020016106739190610e1a565b60408051601f198184030181529082905261068d91611554565b60006040518083038185875af1925050503d80600081146106ca576040519150601f19603f3d011682016040523d82523d6000602084013e6106cf565b606091505b50915091508161071d5760405162461bcd60e51b81526020600482015260146024820152732330b4b632b2103a379039b2b7321022ba3432b960611b60448201526064015b60405180910390fd5b5050505050565b6001600160a01b03821660009081526008602052604090206003015461074b906001610db1565b6001600160a01b03808416600090815260086020908152604080832060030194909455600a548252600581529290208351815492166001600160a01b03198316811782559284015184939192909183916001600160a81b03191617600160a01b8360028111156107bd576107bd610de2565b02179055506040820151816001015560608201518160020155905050600a5460016107e89190610db1565b600a8190556001600160a01b0390921660009081526007602090815260408083206008835281842060030154845290915290209190915550565b61085d6040518060a001604052806060815260200160008152602001606081526020016000815260200160006001600160a01b031681525090565b60015b6001600160a01b03831660009081526008602052604090206003015481116108b9576001600160a01b0383166000908152600760209081526040808320848452909152902054816108b0816112f3565b92505050610860565b6001600160a01b03831660009081526008602052604090819020815160a081019092528054829082906108eb90611323565b80601f016020809104026020016040519081016040528092919081815260200182805461091790611323565b80156109645780601f1061093957610100808354040283529160200191610964565b820191906000526020600020905b81548152906001019060200180831161094757829003601f168201915b505050505081526020016001820154815260200160028201805461098790611323565b80601f01602080910402602001604051908101604052809291908181526020018280546109b390611323565b8015610a005780601f106109d557610100808354040283529160200191610a00565b820191906000526020600020905b8154815290600101906020018083116109e357829003601f168201915b5050509183525050600382015460208201526004909101546001600160a01b03166040909101529392505050565b4260008181558281526005602052604090206002015410610a915760405162461bcd60e51b815260206004820152601760248201527f74696d65206861736e27742065787069726564207965740000000000000000006044820152606401610714565b6000805b600354821015610bb4576000828152600260209081526040808320548684526005909252918290209151635d92ebb560e11b81526001600160a01b039091169163bb25d76a91610ae89190600401611570565b606060405180830381865afa158015610b05573d6000803e3d6000fd5b505050506040513d601f19601f82011682018060405250810190610b2991906115b1565b6000828152600460209081526040909120825181546001600160a01b039091166001600160a01b031982168117835592840151919283916001600160a81b03191617600160a01b836002811115610b8257610b82610de2565b02179055506040919091015160019091015580610b9e816112f3565b9150508180610bac906112f3565b925050610a95565b610bbd8361022a565b50505050565b600b80548190610bd290611323565b80601f0160208091040260200160405190810160405280929190818152602001828054610bfe90611323565b8015610c4b5780601f10610c2057610100808354040283529160200191610c4b565b820191906000526020600020905b815481529060010190602001808311610c2e57829003601f168201915b505050505090806001015490806002018054610c6690611323565b80601f0160208091040260200160405190810160405280929190818152602001828054610c9290611323565b8015610cdf5780601f10610cb457610100808354040283529160200191610cdf565b820191906000526020600020905b815481529060010190602001808311610cc257829003601f168201915b5050505060038301546004909301549192916001600160a01b0316905085565b600080836001600160a01b03168360405160006040518083038185875af1925050503d8060008114610d4d576040519150601f19603f3d011682016040523d82523d6000602084013e610d52565b606091505b509150915081610bbd5760405162461bcd60e51b81526020600482015260146024820152732330b4b632b2103a379039b2b7321022ba3432b960611b6044820152606401610714565b634e487b7160e01b600052601160045260246000fd5b60008219821115610dc457610dc4610d9b565b500190565b600060208284031215610ddb57600080fd5b5035919050565b634e487b7160e01b600052602160045260246000fd5b60038110610e1657634e487b7160e01b600052602160045260246000fd5b9052565b81516001600160a01b031681526020808301516060830191610e3e90840182610df8565b50604092830151919092015290565b6001600160a01b038116811461065157600080fd5b634e487b7160e01b600052604160045260246000fd5b604051601f8201601f1916810167ffffffffffffffff81118282101715610ea157610ea1610e62565b604052919050565b600082601f830112610eba57600080fd5b813567ffffffffffffffff811115610ed457610ed4610e62565b610ee7601f8201601f1916602001610e78565b818152846020838601011115610efc57600080fd5b816020850160208301376000918101602001919091529392505050565b60008060008060808587031215610f2f57600080fd5b8435610f3a81610e4d565b9350602085013567ffffffffffffffff80821115610f5757600080fd5b610f6388838901610ea9565b9450604087013593506060870135915080821115610f8057600080fd5b50610f8d87828801610ea9565b91505092959194509250565b60006020808385031215610fac57600080fd5b823567ffffffffffffffff80821115610fc457600080fd5b818501915085601f830112610fd857600080fd5b813581811115610fea57610fea610e62565b8060051b9150610ffb848301610e78565b818152918301840191848101908884111561101557600080fd5b938501935b8385101561103f578435925061102f83610e4d565b828252938501939085019061101a565b98975050505050505050565b6003811061065157600080fd5b600080600083850360a081121561106e57600080fd5b843561107981610e4d565b9350602085013592506060603f198201121561109457600080fd5b506040516060810181811067ffffffffffffffff821117156110b8576110b8610e62565b60409081528501356110c981610e4d565b815260608501356110d98161104b565b6020820152608094909401356040850152509093909250565b60008082840360a081121561110657600080fd5b833561111181610e4d565b92506080601f198201121561112557600080fd5b506040516080810181811067ffffffffffffffff8211171561114957611149610e62565b604052602084013561115a81610e4d565b8152604084013561116a8161104b565b60208201526060848101356040830152608090940135938101939093525092909150565b6000602082840312156111a057600080fd5b81356111ab81610e4d565b9392505050565b60005b838110156111cd5781810151838201526020016111b5565b83811115610bbd5750506000910152565b600081518084526111f68160208601602086016111b2565b601f01601f19169290920160200192915050565b602081526000825160a0602084015261122660c08401826111de565b9050602084015160408401526040840151601f1984830301606085015261124d82826111de565b6060860151608086810191909152909501516001600160a01b031660a090940193909352509192915050565b60a08152600061128c60a08301886111de565b86602084015282810360408401526112a481876111de565b606084019590955250506001600160a01b03919091166080909101529392505050565b600080604083850312156112da57600080fd5b82356112e581610e4d565b946020939093013593505050565b60006001820161130557611305610d9b565b5060010190565b60008282101561131e5761131e610d9b565b500390565b600181811c9082168061133757607f821691505b60208210810361135757634e487b7160e01b600052602260045260246000fd5b50919050565b601f82111561064e57600081815260208120601f850160051c810160208610156113845750805b601f850160051c820191505b818110156113a357828155600101611390565b505050505050565b815167ffffffffffffffff8111156113c5576113c5610e62565b6113d9816113d38454611323565b8461135d565b602080601f83116001811461140e57600084156113f65750858301515b600019600386901b1c1916600185901b1785556113a3565b600085815260208120601f198616915b8281101561143d5788860151825594840194600190910190840161141e565b508582101561145b5787850151600019600388901b60f8161c191681555b5050505050600190811b01905550565b818103611476575050565b6114808254611323565b67ffffffffffffffff81111561149857611498610e62565b6114a6816113d38454611323565b6000601f8211600181146114da57600083156114c25750848201545b600019600385901b1c1916600184901b17845561071d565b600085815260209020601f19841690600086815260209020845b8381101561151457828601548255600195860195909101906020016114f4565b508583101561145b5793015460001960f8600387901b161c19169092555050600190811b01905550565b634e487b7160e01b600052603260045260246000fd5b600082516115668184602087016111b2565b9190910192915050565b81546001600160a01b038116825260808201906115976020840160a083901c60ff16610df8565b506001830154604083015260029092015460609091015290565b6000606082840312156115c357600080fd5b6040516060810181811067ffffffffffffffff821117156115e6576115e6610e62565b60405282516115f481610e4d565b815260208301516116048161104b565b6020820152604092830151928101929092525091905056fea2646970667358221220341fb3fde51776d5ba1e4ff309e10128431b970368ff9155e706ccef7121889c64736f6c634300080f0033",
    "linkReferences": {}
  },
  "methodIdentifiers": {
    "askNewInsurance(address,(address,uint8,uint256,uint256))": "569ebe07",
    "confrontInsurances(uint256)": "03b37ccd",
    "getInsurance(uint256)": "85fae602",
    "getRequests(address)": "804e44f3",
    "newClient()": "883d0cae",
    "nowTime()": "335f1b37",
    "retrieveTime()": "6a0eb96c",
    "sendChange(address,uint256,(address,uint8,uint256))": "5699de08",
    "sendDeposit(address,uint256)": "e35fd0c7",
    "setProviders(address[])": "1b98f6ac",
    "takeClient(address,string,uint256,string)": "1ae6fb2d"
  },
  "id": 16
}