{
  "abi": [
    {
      "inputs": [],
      "stateMutability": "nonpayable",
      "type": "constructor"
    },
    {
      "inputs": [
        {
          "components": [
            {
              "internalType": "address payable",
              "name": "clientWallet",
              "type": "address"
            },
            {
              "internalType": "enum Shared.Type",
              "name": "t",
              "type": "uint8"
            },
            {
              "internalType": "uint256",
              "name": "maxp",
              "type": "uint256"
            },
            {
              "internalType": "uint256",
              "name": "scadenza",
              "type": "uint256"
            }
          ],
          "internalType": "struct Shared.Request",
          "name": "_newRequest",
          "type": "tuple"
        }
      ],
      "name": "askNewInsurance",
      "outputs": [],
      "stateMutability": "payable",
      "type": "function"
    },
    {
      "inputs": [
        {
          "internalType": "uint256",
          "name": "to_buy",
          "type": "uint256"
        }
      ],
      "name": "buyProposal",
      "outputs": [
        {
          "components": [
            {
              "internalType": "address payable",
              "name": "provider",
              "type": "address"
            },
            {
              "internalType": "enum Shared.Type",
              "name": "insurance_type",
              "type": "uint8"
            },
            {
              "internalType": "uint256",
              "name": "price",
              "type": "uint256"
            }
          ],
          "internalType": "struct Shared.InsuranceItem",
          "name": "",
          "type": "tuple"
        }
      ],
      "stateMutability": "nonpayable",
      "type": "function"
    },
    {
      "inputs": [
        {
          "internalType": "uint256",
          "name": "_idR",
          "type": "uint256"
        }
      ],
      "name": "getRequest",
      "outputs": [
        {
          "components": [
            {
              "internalType": "address payable",
              "name": "clientWallet",
              "type": "address"
            },
            {
              "internalType": "enum Shared.Type",
              "name": "t",
              "type": "uint8"
            },
            {
              "internalType": "uint256",
              "name": "maxp",
              "type": "uint256"
            },
            {
              "internalType": "uint256",
              "name": "scadenza",
              "type": "uint256"
            }
          ],
          "internalType": "struct Shared.Request",
          "name": "",
          "type": "tuple"
        }
      ],
      "stateMutability": "view",
      "type": "function"
    },
    {
      "inputs": [
        {
          "internalType": "address",
          "name": "_client",
          "type": "address"
        }
      ],
      "name": "getRequestsByClient",
      "outputs": [
        {
          "internalType": "uint256[]",
          "name": "",
          "type": "uint256[]"
        }
      ],
      "stateMutability": "view",
      "type": "function"
    },
    {
      "inputs": [
        {
          "internalType": "uint256",
          "name": "",
          "type": "uint256"
        }
      ],
      "name": "indexed_requests",
      "outputs": [
        {
          "internalType": "address payable",
          "name": "clientWallet",
          "type": "address"
        },
        {
          "internalType": "enum Shared.Type",
          "name": "t",
          "type": "uint8"
        },
        {
          "internalType": "uint256",
          "name": "maxp",
          "type": "uint256"
        },
        {
          "internalType": "uint256",
          "name": "scadenza",
          "type": "uint256"
        }
      ],
      "stateMutability": "view",
      "type": "function"
    },
    {
      "inputs": [],
      "name": "newClient",
      "outputs": [
        {
          "internalType": "string",
          "name": "name",
          "type": "string"
        },
        {
          "internalType": "uint256",
          "name": "birth",
          "type": "uint256"
        },
        {
          "internalType": "string",
          "name": "discount_n",
          "type": "string"
        },
        {
          "internalType": "uint256",
          "name": "pending",
          "type": "uint256"
        },
        {
          "internalType": "address payable",
          "name": "_clientWallet",
          "type": "address"
        }
      ],
      "stateMutability": "view",
      "type": "function"
    },
    {
      "inputs": [],
      "name": "nowTime",
      "outputs": [
        {
          "internalType": "uint256",
          "name": "",
          "type": "uint256"
        }
      ],
      "stateMutability": "nonpayable",
      "type": "function"
    },
    {
      "inputs": [
        {
          "internalType": "address payable",
          "name": "_to",
          "type": "address"
        },
        {
          "internalType": "uint256",
          "name": "_price",
          "type": "uint256"
        }
      ],
      "name": "sendDeposit",
      "outputs": [],
      "stateMutability": "payable",
      "type": "function"
    },
    {
      "inputs": [
        {
          "internalType": "string",
          "name": "_cName",
          "type": "string"
        },
        {
          "internalType": "uint256",
          "name": "_cBirth",
          "type": "uint256"
        },
        {
          "internalType": "string",
          "name": "_cDiscount",
          "type": "string"
        }
      ],
      "name": "setClient",
      "outputs": [
        {
          "internalType": "bool",
          "name": "",
          "type": "bool"
        }
      ],
      "stateMutability": "nonpayable",
      "type": "function"
    },
    {
      "inputs": [
        {
          "internalType": "uint256",
          "name": "id_request",
          "type": "uint256"
        },
        {
          "components": [
            {
              "internalType": "address payable",
              "name": "provider",
              "type": "address"
            },
            {
              "internalType": "enum Shared.Type",
              "name": "insurance_type",
              "type": "uint8"
            },
            {
              "internalType": "uint256",
              "name": "price",
              "type": "uint256"
            }
          ],
          "internalType": "struct Shared.InsuranceItem",
          "name": "_prop",
          "type": "tuple"
        }
      ],
      "name": "setProposal",
      "outputs": [],
      "stateMutability": "nonpayable",
      "type": "function"
    },
    {
      "inputs": [
        {
          "internalType": "address payable[]",
          "name": "_prov",
          "type": "address[]"
        }
      ],
      "name": "setProviders",
      "outputs": [],
      "stateMutability": "nonpayable",
      "type": "function"
    },
    {
      "stateMutability": "payable",
      "type": "receive"
    }
  ],
  "bytecode": {
    "object": "0x608060405260008055670de0b6b3a76400006001556000600355600060055534801561002a57600080fd5b5061144b8061003a6000396000f3fe6080604052600436106100a05760003560e01c8063883d0cae11610064578063883d0cae14610184578063b8f97b74146101aa578063c58343ef146101d7578063e35fd0c714610204578063e887ccd314610217578063ee59fb991461024457600080fd5b80631b6778d5146100d95780631b98f6ac146100fb5780632cd5777a1461011b578063335f1b371461012e57806386818cbf1461015457600080fd5b366100d457336000908152600a60205260409020546100c0903490610c7b565b336000908152600a60205260409020819055005b600080fd5b3480156100e557600080fd5b506100f96100f4366004610d03565b6102a5565b005b34801561010757600080fd5b506100f9610116366004610d88565b6104f1565b6100f9610129366004610e3a565b6105e9565b34801561013a57600080fd5b504260008190556040519081526020015b60405180910390f35b34801561016057600080fd5b5061017461016f366004610f1e565b610737565b604051901515815260200161014b565b34801561019057600080fd5b5061019961083d565b60405161014b959493929190610fd8565b3480156101b657600080fd5b506101ca6101c5366004611026565b610979565b60405161014b9190611077565b3480156101e357600080fd5b506101f76101f2366004611026565b610a9a565b60405161014b91906110aa565b6100f96102123660046110e9565b610b3e565b34801561022357600080fd5b50610237610232366004611115565b610be0565b60405161014b9190611139565b34801561025057600080fd5b5061029561025f366004611026565b6006602052600090815260409020805460018201546002909201546001600160a01b03821692600160a01b90920460ff16919084565b60405161014b949392919061117d565b426000818155838152600660205260409020600201541161030d5760405162461bcd60e51b815260206004820152601a60248201527f74656d706f207363616475746f207065722070726f706f73746500000000000060448201526064015b60405180910390fd5b604080820151600084815260066020529190912060010154108015906103705750806020015160028111156103445761034461103f565b600083815260066020526040902054600160a01b900460ff16600281111561036e5761036e61103f565b145b156103e7576000828152600760209081526040909120825181546001600160a01b031981166001600160a01b039092169182178355928401518493909183916001600160a81b03191617600160a01b8360028111156103d1576103d161103f565b0217905550604082015181600101559050505050565b6040808201516000848152600760205291909120600101541161044c5760405162461bcd60e51b815260206004820152601f60248201527f70726573656e74652061737369637572617a696f6e65206d69676c696f7265006044820152606401610304565b806020015160028111156104625761046261103f565b600083815260076020526040902054600160a01b900460ff16600281111561048c5761048c61103f565b036104ed576000828152600760209081526040909120825181546001600160a01b031981166001600160a01b039092169182178355928401518493909183916001600160a81b03191617600160a01b8360028111156103d1576103d161103f565b5050565b60035460000361056957805160035560005b6003548110156104ed5781818151811061051f5761051f6111ac565b60209081029190910181015160008381526002909252604090912080546001600160a01b0319166001600160a01b0390921691909117905580610561816111c2565b915050610503565b60035481516105789082610c7b565b600355805b6003548110156105e357828181518110610599576105996111ac565b60209081029190910181015160008381526002909252604090912080546001600160a01b0319166001600160a01b03909216919091179055806105db816111c2565b91505061057d565b50505b50565b604080820151336000908152600a602052919091205410156106455760405162461bcd60e51b81526020600482015260156024820152741b9bdd08195b9bdd59da08195d1a195c881cd95b9d605a1b6044820152606401610304565b33600081815260096020526040902060030154610663906001610c7b565b6001600160a01b038083166000908152600960209081526040808320600301949094556005548252600681529290208451815492166001600160a01b03198316811782559285015185939192909183916001600160a81b03191617600160a01b8360028111156106d5576106d561103f565b0217905550604082015181600101556060820151816002015590505060055460016107009190610c7b565b60058190556001600160a01b0390911660009081526008602090815260408083206009835281842060030154845290915290205550565b6040805160a0810182528481526020810184905290810182905260006060820181905233608083018190529091829190600b806107748982611263565b5060208201516001820155604082015160028201906107939082611263565b5060608201516003820155608090910151600490910180546001600160a01b0319166001600160a01b0392831617905581166000908152600960205260409020600b90806107e18382611323565b5060018201548160010155600282018160020190816108009190611323565b5060038281015490820155600491820154910180546001600160a01b0319166001600160a01b039092169190911790555060019150509392505050565b600b8054819061084c906111db565b80601f0160208091040260200160405190810160405280929190818152602001828054610878906111db565b80156108c55780601f1061089a576101008083540402835291602001916108c5565b820191906000526020600020905b8154815290600101906020018083116108a857829003601f168201915b5050505050908060010154908060020180546108e0906111db565b80601f016020809104026020016040519081016040528092919081815260200182805461090c906111db565b80156109595780601f1061092e57610100808354040283529160200191610959565b820191906000526020600020905b81548152906001019060200180831161093c57829003601f168201915b5050505060038301546004909301549192916001600160a01b0316905085565b604080516060810182526000808252602082018190529181019190915242600081815583815260066020526040902060020154106109b657600080fd5b600082815260076020526040902080546001909101546109df916001600160a01b031690610b3e565b60008281526006602081815260408084208054600784529185206001908101549490935291909101546001600160a01b0390911691610a1d916113fe565b9150610a298183610b3e565b60008481526007602090815260409182902082516060810190935280546001600160a01b03811684529091830190600160a01b900460ff166002811115610a7257610a7261103f565b6002811115610a8357610a8361103f565b815260200160018201548152505092505050919050565b610ac6604080516080810190915260008082526020820190815260200160008152602001600081525090565b60008281526006602090815260409182902082516080810190935280546001600160a01b03811684529091830190600160a01b900460ff166002811115610b0f57610b0f61103f565b6002811115610b2057610b2061103f565b81526001820154602082015260029091015460409091015292915050565b600080836001600160a01b03168360405160006040518083038185875af1925050503d8060008114610b8c576040519150601f19603f3d011682016040523d82523d6000602084013e610b91565b606091505b509150915081610bda5760405162461bcd60e51b81526020600482015260146024820152732330b4b632b2103a379039b2b7321022ba3432b960611b6044820152606401610304565b50505050565b60608060005b6001600160a01b038416600090815260096020526040902060030154811015610c5e576001600160a01b03841660009081526008602090815260408083208484529091529020548251839083908110610c4157610c416111ac565b602090810291909101015280610c56816111c2565b915050610be6565b5092915050565b634e487b7160e01b600052601160045260246000fd5b60008219821115610c8e57610c8e610c65565b500190565b634e487b7160e01b600052604160045260246000fd5b604051601f8201601f1916810167ffffffffffffffff81118282101715610cd257610cd2610c93565b604052919050565b6001600160a01b03811681146105e657600080fd5b803560038110610cfe57600080fd5b919050565b6000808284036080811215610d1757600080fd5b833592506060601f1982011215610d2d57600080fd5b506040516060810181811067ffffffffffffffff82111715610d5157610d51610c93565b6040526020840135610d6281610cda565b8152610d7060408501610cef565b60208201526060939093013560408401525092909150565b60006020808385031215610d9b57600080fd5b823567ffffffffffffffff80821115610db357600080fd5b818501915085601f830112610dc757600080fd5b813581811115610dd957610dd9610c93565b8060051b9150610dea848301610ca9565b8181529183018401918481019088841115610e0457600080fd5b938501935b83851015610e2e5784359250610e1e83610cda565b8282529385019390850190610e09565b98975050505050505050565b600060808284031215610e4c57600080fd5b6040516080810181811067ffffffffffffffff82111715610e6f57610e6f610c93565b6040528235610e7d81610cda565b8152610e8b60208401610cef565b602082015260408301356040820152606083013560608201528091505092915050565b600082601f830112610ebf57600080fd5b813567ffffffffffffffff811115610ed957610ed9610c93565b610eec601f8201601f1916602001610ca9565b818152846020838601011115610f0157600080fd5b816020850160208301376000918101602001919091529392505050565b600080600060608486031215610f3357600080fd5b833567ffffffffffffffff80821115610f4b57600080fd5b610f5787838801610eae565b9450602086013593506040860135915080821115610f7457600080fd5b50610f8186828701610eae565b9150509250925092565b6000815180845260005b81811015610fb157602081850181015186830182015201610f95565b81811115610fc3576000602083870101525b50601f01601f19169290920160200192915050565b60a081526000610feb60a0830188610f8b565b86602084015282810360408401526110038187610f8b565b606084019590955250506001600160a01b03919091166080909101529392505050565b60006020828403121561103857600080fd5b5035919050565b634e487b7160e01b600052602160045260246000fd5b6003811061107357634e487b7160e01b600052602160045260246000fd5b9052565b81516001600160a01b03168152602080830151606083019161109b90840182611055565b50604092830151919092015290565b81516001600160a01b0316815260208083015160808301916110ce90840182611055565b50604083015160408301526060830151606083015292915050565b600080604083850312156110fc57600080fd5b823561110781610cda565b946020939093013593505050565b60006020828403121561112757600080fd5b813561113281610cda565b9392505050565b6020808252825182820181905260009190848201906040850190845b8181101561117157835183529284019291840191600101611155565b50909695505050505050565b6001600160a01b03851681526080810161119a6020830186611055565b60408201939093526060015292915050565b634e487b7160e01b600052603260045260246000fd5b6000600182016111d4576111d4610c65565b5060010190565b600181811c908216806111ef57607f821691505b60208210810361120f57634e487b7160e01b600052602260045260246000fd5b50919050565b601f8211156105e357600081815260208120601f850160051c8101602086101561123c5750805b601f850160051c820191505b8181101561125b57828155600101611248565b505050505050565b815167ffffffffffffffff81111561127d5761127d610c93565b6112918161128b84546111db565b84611215565b602080601f8311600181146112c657600084156112ae5750858301515b600019600386901b1c1916600185901b17855561125b565b600085815260208120601f198616915b828110156112f5578886015182559484019460019091019084016112d6565b50858210156113135787850151600019600388901b60f8161c191681555b5050505050600190811b01905550565b81810361132e575050565b61133882546111db565b67ffffffffffffffff81111561135057611350610c93565b61135e8161128b84546111db565b6000601f821160018114611392576000831561137a5750848201545b600019600385901b1c1916600184901b1784556113f7565b600085815260209020601f19841690600086815260209020845b838110156113cc57828601548255600195860195909101906020016113ac565b50858310156113ea5781850154600019600388901b60f8161c191681555b50505060018360011b0184555b5050505050565b60008282101561141057611410610c65565b50039056fea264697066735822122044ea0989be1d7ed3ed979a5ede1c0eb12d4b8f17d394385a6440ac8224b09bf764736f6c634300080f0033",
    "linkReferences": {}
  },
  "methodIdentifiers": {
    "askNewInsurance((address,uint8,uint256,uint256))": "2cd5777a",
    "buyProposal(uint256)": "b8f97b74",
    "getRequest(uint256)": "c58343ef",
    "getRequestsByClient(address)": "e887ccd3",
    "indexed_requests(uint256)": "ee59fb99",
    "newClient()": "883d0cae",
    "nowTime()": "335f1b37",
    "sendDeposit(address,uint256)": "e35fd0c7",
    "setClient(string,uint256,string)": "86818cbf",
    "setProposal(uint256,(address,uint8,uint256))": "1b6778d5",
    "setProviders(address[])": "1b98f6ac"
  },
  "id": 16
}